{
  "_format": "hh-sol-artifact-1",
  "contractName": "NFBeez",
  "sourceName": "contracts/NFBeez.sol",
  "abi": [
    {
      "inputs": [
        {
          "internalType": "string",
          "name": "_name",
          "type": "string"
        },
        {
          "internalType": "string",
          "name": "_symbol",
          "type": "string"
        },
        {
          "internalType": "string",
          "name": "_initBaseURI",
          "type": "string"
        },
        {
          "internalType": "string",
          "name": "_initNotRevealedUri",
          "type": "string"
        },
        {
          "internalType": "address payable[2]",
          "name": "_royaltyRecipients",
          "type": "address[2]"
        }
      ],
      "stateMutability": "payable",
      "type": "constructor"
    },
    {
      "anonymous": false,
      "inputs": [
        {
          "indexed": true,
          "internalType": "address",
          "name": "owner",
          "type": "address"
        },
        {
          "indexed": true,
          "internalType": "address",
          "name": "approved",
          "type": "address"
        },
        {
          "indexed": true,
          "internalType": "uint256",
          "name": "tokenId",
          "type": "uint256"
        }
      ],
      "name": "Approval",
      "type": "event"
    },
    {
      "anonymous": false,
      "inputs": [
        {
          "indexed": true,
          "internalType": "address",
          "name": "owner",
          "type": "address"
        },
        {
          "indexed": true,
          "internalType": "address",
          "name": "operator",
          "type": "address"
        },
        {
          "indexed": false,
          "internalType": "bool",
          "name": "approved",
          "type": "bool"
        }
      ],
      "name": "ApprovalForAll",
      "type": "event"
    },
    {
      "anonymous": false,
      "inputs": [
        {
          "indexed": false,
          "internalType": "address payable[]",
          "name": "royaltyAddresses",
          "type": "address[]"
        },
        {
          "indexed": false,
          "internalType": "uint256[]",
          "name": "royaltiesWithTwoDecimals",
          "type": "uint256[]"
        }
      ],
      "name": "ChangeCommonRoyalty",
      "type": "event"
    },
    {
      "anonymous": false,
      "inputs": [
        {
          "indexed": false,
          "internalType": "uint256",
          "name": "id",
          "type": "uint256"
        },
        {
          "indexed": false,
          "internalType": "address payable[]",
          "name": "royaltyAddresses",
          "type": "address[]"
        },
        {
          "indexed": false,
          "internalType": "uint256[]",
          "name": "royaltiesWithTwoDecimals",
          "type": "uint256[]"
        }
      ],
      "name": "ChangeRoyalty",
      "type": "event"
    },
    {
      "anonymous": false,
      "inputs": [
        {
          "indexed": false,
          "internalType": "address",
          "name": "sender",
          "type": "address"
        },
        {
          "indexed": false,
          "internalType": "uint256",
          "name": "mintAmount",
          "type": "uint256"
        },
        {
          "indexed": false,
          "internalType": "uint256",
          "name": "_nftId",
          "type": "uint256"
        }
      ],
      "name": "MintedNFT",
      "type": "event"
    },
    {
      "anonymous": false,
      "inputs": [
        {
          "indexed": true,
          "internalType": "address",
          "name": "previousOwner",
          "type": "address"
        },
        {
          "indexed": true,
          "internalType": "address",
          "name": "newOwner",
          "type": "address"
        }
      ],
      "name": "OwnershipTransferred",
      "type": "event"
    },
    {
      "anonymous": false,
      "inputs": [
        {
          "indexed": false,
          "internalType": "uint256",
          "name": "tokenId",
          "type": "uint256"
        },
        {
          "indexed": false,
          "internalType": "address[]",
          "name": "recipients",
          "type": "address[]"
        },
        {
          "indexed": false,
          "internalType": "uint256[]",
          "name": "bps",
          "type": "uint256[]"
        }
      ],
      "name": "SecondarySaleFees",
      "type": "event"
    },
    {
      "anonymous": false,
      "inputs": [
        {
          "indexed": true,
          "internalType": "address",
          "name": "from",
          "type": "address"
        },
        {
          "indexed": true,
          "internalType": "address",
          "name": "to",
          "type": "address"
        },
        {
          "indexed": true,
          "internalType": "uint256",
          "name": "tokenId",
          "type": "uint256"
        }
      ],
      "name": "Transfer",
      "type": "event"
    },
    {
      "inputs": [
        {
          "internalType": "address",
          "name": "",
          "type": "address"
        }
      ],
      "name": "addressMintedBalance",
      "outputs": [
        {
          "internalType": "uint256",
          "name": "",
          "type": "uint256"
        }
      ],
      "stateMutability": "view",
      "type": "function"
    },
    {
      "inputs": [
        {
          "internalType": "address",
          "name": "to",
          "type": "address"
        },
        {
          "internalType": "uint256",
          "name": "tokenId",
          "type": "uint256"
        }
      ],
      "name": "approve",
      "outputs": [],
      "stateMutability": "nonpayable",
      "type": "function"
    },
    {
      "inputs": [
        {
          "internalType": "address",
          "name": "owner",
          "type": "address"
        }
      ],
      "name": "balanceOf",
      "outputs": [
        {
          "internalType": "uint256",
          "name": "",
          "type": "uint256"
        }
      ],
      "stateMutability": "view",
      "type": "function"
    },
    {
      "inputs": [],
      "name": "baseExtension",
      "outputs": [
        {
          "internalType": "string",
          "name": "",
          "type": "string"
        }
      ],
      "stateMutability": "view",
      "type": "function"
    },
    {
      "inputs": [],
      "name": "baseURI",
      "outputs": [
        {
          "internalType": "string",
          "name": "",
          "type": "string"
        }
      ],
      "stateMutability": "view",
      "type": "function"
    },
    {
      "inputs": [
        {
          "internalType": "uint256",
          "name": "",
          "type": "uint256"
        }
      ],
      "name": "commonRoyaltiesWithTwoDecimals",
      "outputs": [
        {
          "internalType": "uint256",
          "name": "",
          "type": "uint256"
        }
      ],
      "stateMutability": "view",
      "type": "function"
    },
    {
      "inputs": [
        {
          "internalType": "uint256",
          "name": "",
          "type": "uint256"
        }
      ],
      "name": "commonRoyaltyAddresses",
      "outputs": [
        {
          "internalType": "address payable",
          "name": "",
          "type": "address"
        }
      ],
      "stateMutability": "view",
      "type": "function"
    },
    {
      "inputs": [],
      "name": "cost",
      "outputs": [
        {
          "internalType": "uint256",
          "name": "",
          "type": "uint256"
        }
      ],
      "stateMutability": "view",
      "type": "function"
    },
    {
      "inputs": [
        {
          "internalType": "uint256",
          "name": "tokenId",
          "type": "uint256"
        }
      ],
      "name": "getApproved",
      "outputs": [
        {
          "internalType": "address",
          "name": "",
          "type": "address"
        }
      ],
      "stateMutability": "view",
      "type": "function"
    },
    {
      "inputs": [
        {
          "internalType": "uint256",
          "name": "_tokenId",
          "type": "uint256"
        }
      ],
      "name": "getFeeBps",
      "outputs": [
        {
          "internalType": "uint256[]",
          "name": "",
          "type": "uint256[]"
        }
      ],
      "stateMutability": "view",
      "type": "function"
    },
    {
      "inputs": [
        {
          "internalType": "uint256",
          "name": "_tokenId",
          "type": "uint256"
        }
      ],
      "name": "getFeeRecipients",
      "outputs": [
        {
          "internalType": "address payable[]",
          "name": "",
          "type": "address[]"
        }
      ],
      "stateMutability": "view",
      "type": "function"
    },
    {
      "inputs": [
        {
          "internalType": "address",
          "name": "owner",
          "type": "address"
        },
        {
          "internalType": "address",
          "name": "operator",
          "type": "address"
        }
      ],
      "name": "isApprovedForAll",
      "outputs": [
        {
          "internalType": "bool",
          "name": "",
          "type": "bool"
        }
      ],
      "stateMutability": "view",
      "type": "function"
    },
    {
      "inputs": [
        {
          "internalType": "address",
          "name": "_user",
          "type": "address"
        }
      ],
      "name": "isWhitelisted",
      "outputs": [
        {
          "internalType": "bool",
          "name": "",
          "type": "bool"
        }
      ],
      "stateMutability": "view",
      "type": "function"
    },
    {
      "inputs": [],
      "name": "maxMintAmount",
      "outputs": [
        {
          "internalType": "uint256",
          "name": "",
          "type": "uint256"
        }
      ],
      "stateMutability": "view",
      "type": "function"
    },
    {
      "inputs": [],
      "name": "maxSupply",
      "outputs": [
        {
          "internalType": "uint256",
          "name": "",
          "type": "uint256"
        }
      ],
      "stateMutability": "view",
      "type": "function"
    },
    {
      "inputs": [
        {
          "internalType": "uint256",
          "name": "_mintAmount",
          "type": "uint256"
        }
      ],
      "name": "mint",
      "outputs": [],
      "stateMutability": "payable",
      "type": "function"
    },
    {
      "inputs": [],
      "name": "name",
      "outputs": [
        {
          "internalType": "string",
          "name": "",
          "type": "string"
        }
      ],
      "stateMutability": "view",
      "type": "function"
    },
    {
      "inputs": [],
      "name": "nftPerAddressLimit",
      "outputs": [
        {
          "internalType": "uint256",
          "name": "",
          "type": "uint256"
        }
      ],
      "stateMutability": "view",
      "type": "function"
    },
    {
      "inputs": [],
      "name": "notRevealedUri",
      "outputs": [
        {
          "internalType": "string",
          "name": "",
          "type": "string"
        }
      ],
      "stateMutability": "view",
      "type": "function"
    },
    {
      "inputs": [],
      "name": "onlyWhitelisted",
      "outputs": [
        {
          "internalType": "bool",
          "name": "",
          "type": "bool"
        }
      ],
      "stateMutability": "view",
      "type": "function"
    },
    {
      "inputs": [],
      "name": "owner",
      "outputs": [
        {
          "internalType": "address",
          "name": "",
          "type": "address"
        }
      ],
      "stateMutability": "view",
      "type": "function"
    },
    {
      "inputs": [
        {
          "internalType": "uint256",
          "name": "tokenId",
          "type": "uint256"
        }
      ],
      "name": "ownerOf",
      "outputs": [
        {
          "internalType": "address",
          "name": "",
          "type": "address"
        }
      ],
      "stateMutability": "view",
      "type": "function"
    },
    {
      "inputs": [
        {
          "internalType": "bool",
          "name": "_state",
          "type": "bool"
        }
      ],
      "name": "pause",
      "outputs": [],
      "stateMutability": "nonpayable",
      "type": "function"
    },
    {
      "inputs": [],
      "name": "paused",
      "outputs": [
        {
          "internalType": "bool",
          "name": "",
          "type": "bool"
        }
      ],
      "stateMutability": "view",
      "type": "function"
    },
    {
      "inputs": [],
      "name": "renounceOwnership",
      "outputs": [],
      "stateMutability": "nonpayable",
      "type": "function"
    },
    {
      "inputs": [],
      "name": "reveal",
      "outputs": [],
      "stateMutability": "nonpayable",
      "type": "function"
    },
    {
      "inputs": [],
      "name": "revealed",
      "outputs": [
        {
          "internalType": "bool",
          "name": "",
          "type": "bool"
        }
      ],
      "stateMutability": "view",
      "type": "function"
    },
    {
      "inputs": [
        {
          "internalType": "address",
          "name": "from",
          "type": "address"
        },
        {
          "internalType": "address",
          "name": "to",
          "type": "address"
        },
        {
          "internalType": "uint256",
          "name": "tokenId",
          "type": "uint256"
        }
      ],
      "name": "safeTransferFrom",
      "outputs": [],
      "stateMutability": "nonpayable",
      "type": "function"
    },
    {
      "inputs": [
        {
          "internalType": "address",
          "name": "from",
          "type": "address"
        },
        {
          "internalType": "address",
          "name": "to",
          "type": "address"
        },
        {
          "internalType": "uint256",
          "name": "tokenId",
          "type": "uint256"
        },
        {
          "internalType": "bytes",
          "name": "_data",
          "type": "bytes"
        }
      ],
      "name": "safeTransferFrom",
      "outputs": [],
      "stateMutability": "nonpayable",
      "type": "function"
    },
    {
      "inputs": [
        {
          "internalType": "address",
          "name": "operator",
          "type": "address"
        },
        {
          "internalType": "bool",
          "name": "approved",
          "type": "bool"
        }
      ],
      "name": "setApprovalForAll",
      "outputs": [],
      "stateMutability": "nonpayable",
      "type": "function"
    },
    {
      "inputs": [
        {
          "internalType": "string",
          "name": "_newBaseExtension",
          "type": "string"
        }
      ],
      "name": "setBaseExtension",
      "outputs": [],
      "stateMutability": "nonpayable",
      "type": "function"
    },
    {
      "inputs": [
        {
          "internalType": "string",
          "name": "_newBaseURI",
          "type": "string"
        }
      ],
      "name": "setBaseURI",
      "outputs": [],
      "stateMutability": "nonpayable",
      "type": "function"
    },
    {
      "inputs": [
        {
          "internalType": "uint256",
          "name": "_newCost",
          "type": "uint256"
        }
      ],
      "name": "setCost",
      "outputs": [],
      "stateMutability": "nonpayable",
      "type": "function"
    },
    {
      "inputs": [
        {
          "internalType": "uint256",
          "name": "_limit",
          "type": "uint256"
        }
      ],
      "name": "setNftPerAddressLimit",
      "outputs": [],
      "stateMutability": "nonpayable",
      "type": "function"
    },
    {
      "inputs": [
        {
          "internalType": "string",
          "name": "_notRevealedURI",
          "type": "string"
        }
      ],
      "name": "setNotRevealedURI",
      "outputs": [],
      "stateMutability": "nonpayable",
      "type": "function"
    },
    {
      "inputs": [
        {
          "internalType": "bool",
          "name": "_state",
          "type": "bool"
        }
      ],
      "name": "setOnlyWhitelisted",
      "outputs": [],
      "stateMutability": "nonpayable",
      "type": "function"
    },
    {
      "inputs": [
        {
          "internalType": "uint256",
          "name": "_newmaxMintAmount",
          "type": "uint256"
        }
      ],
      "name": "setmaxMintAmount",
      "outputs": [],
      "stateMutability": "nonpayable",
      "type": "function"
    },
    {
      "inputs": [
        {
          "internalType": "bytes4",
          "name": "interfaceId",
          "type": "bytes4"
        }
      ],
      "name": "supportsInterface",
      "outputs": [
        {
          "internalType": "bool",
          "name": "",
          "type": "bool"
        }
      ],
      "stateMutability": "view",
      "type": "function"
    },
    {
      "inputs": [],
      "name": "symbol",
      "outputs": [
        {
          "internalType": "string",
          "name": "",
          "type": "string"
        }
      ],
      "stateMutability": "view",
      "type": "function"
    },
    {
      "inputs": [
        {
          "internalType": "uint256",
          "name": "index",
          "type": "uint256"
        }
      ],
      "name": "tokenByIndex",
      "outputs": [
        {
          "internalType": "uint256",
          "name": "",
          "type": "uint256"
        }
      ],
      "stateMutability": "view",
      "type": "function"
    },
    {
      "inputs": [
        {
          "internalType": "address",
          "name": "owner",
          "type": "address"
        },
        {
          "internalType": "uint256",
          "name": "index",
          "type": "uint256"
        }
      ],
      "name": "tokenOfOwnerByIndex",
      "outputs": [
        {
          "internalType": "uint256",
          "name": "",
          "type": "uint256"
        }
      ],
      "stateMutability": "view",
      "type": "function"
    },
    {
      "inputs": [
        {
          "internalType": "uint256",
          "name": "tokenId",
          "type": "uint256"
        }
      ],
      "name": "tokenURI",
      "outputs": [
        {
          "internalType": "string",
          "name": "",
          "type": "string"
        }
      ],
      "stateMutability": "view",
      "type": "function"
    },
    {
      "inputs": [],
      "name": "totalSupply",
      "outputs": [
        {
          "internalType": "uint256",
          "name": "",
          "type": "uint256"
        }
      ],
      "stateMutability": "view",
      "type": "function"
    },
    {
      "inputs": [
        {
          "internalType": "address",
          "name": "from",
          "type": "address"
        },
        {
          "internalType": "address",
          "name": "to",
          "type": "address"
        },
        {
          "internalType": "uint256",
          "name": "tokenId",
          "type": "uint256"
        }
      ],
      "name": "transferFrom",
      "outputs": [],
      "stateMutability": "nonpayable",
      "type": "function"
    },
    {
      "inputs": [
        {
          "internalType": "address",
          "name": "newOwner",
          "type": "address"
        }
      ],
      "name": "transferOwnership",
      "outputs": [],
      "stateMutability": "nonpayable",
      "type": "function"
    },
    {
      "inputs": [
        {
          "internalType": "address",
          "name": "_owner",
          "type": "address"
        }
      ],
      "name": "walletOfOwner",
      "outputs": [
        {
          "internalType": "uint256[]",
          "name": "",
          "type": "uint256[]"
        }
      ],
      "stateMutability": "view",
      "type": "function"
    },
    {
      "inputs": [
        {
          "internalType": "address[]",
          "name": "_users",
          "type": "address[]"
        }
      ],
      "name": "whitelistUsers",
      "outputs": [],
      "stateMutability": "nonpayable",
      "type": "function"
    },
    {
      "inputs": [
        {
          "internalType": "uint256",
          "name": "",
          "type": "uint256"
        }
      ],
      "name": "whitelistedAddresses",
      "outputs": [
        {
          "internalType": "address",
          "name": "",
          "type": "address"
        }
      ],
      "stateMutability": "view",
      "type": "function"
    },
    {
      "inputs": [],
      "name": "withdraw",
      "outputs": [],
      "stateMutability": "payable",
      "type": "function"
    }
  ],
  "bytecode": "0x60806040526040518060400160405280600581526020017f2e6a736f6e000000000000000000000000000000000000000000000000000000815250601090805190602001906200005192919062000845565b5067016345785d8a000060125561012c601355600a60145560286015556000601660006101000a81548160ff0219169083151502179055506000601660016101000a81548160ff0219169083151502179055506001601660026101000a81548160ff02191690831515021790555060405162006d0638038062006d068339818101604052810190620000e4919062000b8f565b600067ffffffffffffffff811115620001025762000101620011e2565b5b604051908082528060200260200182016040528015620001315781602001602082028036833780820191505090505b50600067ffffffffffffffff81111562000150576200014f620011e2565b5b6040519080825280602002602001820160405280156200017f5781602001602082028036833780820191505090505b50868681600090805190602001906200019a92919062000845565b508060019080519060200190620001b392919062000845565b505050620001d6620001ca6200048b60201b60201c565b6200049360201b60201c565b620001e882826200055960201b60201c565b5050600073ffffffffffffffffffffffffffffffffffffffff1681600060028110620002195762000218620011b3565b5b602002015173ffffffffffffffffffffffffffffffffffffffff16141562000278576040517f08c379a00000000000000000000000000000000000000000000000000000000081526004016200026f9062000e94565b60405180910390fd5b600073ffffffffffffffffffffffffffffffffffffffff1681600160028110620002a757620002a6620011b3565b5b602002015173ffffffffffffffffffffffffffffffffffffffff16141562000306576040517f08c379a0000000000000000000000000000000000000000000000000000000008152600401620002fd9062000e94565b60405180910390fd5b6200031783620006c560201b60201c565b62000328826200077060201b60201c565b8060189060026200033b929190620008d6565b506000600167ffffffffffffffff8111156200035c576200035b620011e2565b5b6040519080825280602002602001820160405280156200038b5781602001602082028036833780820191505090505b50905073e2b8651bf50913057ff47fc4f02a8e12146083b881600081518110620003ba57620003b9620011b3565b5b602002602001019073ffffffffffffffffffffffffffffffffffffffff16908173ffffffffffffffffffffffffffffffffffffffff16815250506000600167ffffffffffffffff811115620004145762000413620011e2565b5b604051908082528060200260200182016040528015620004435781602001602082028036833780820191505090505b5090506101f48160008151811062000460576200045f620011b3565b5b6020026020010181815250506200047e82826200055960201b60201c565b50505050505050620012f9565b600033905090565b6000600a60009054906101000a900473ffffffffffffffffffffffffffffffffffffffff16905081600a60006101000a81548173ffffffffffffffffffffffffffffffffffffffff021916908373ffffffffffffffffffffffffffffffffffffffff1602179055508173ffffffffffffffffffffffffffffffffffffffff168173ffffffffffffffffffffffffffffffffffffffff167f8be0079c531659141344cd1fd0a4f28419497f9722a3daafe3b4186f6b6457e060405160405180910390a35050565b8051825114620005a0576040517f08c379a0000000000000000000000000000000000000000000000000000000008152600401620005979062000efa565b60405180910390fd5b60005b82518110156200065357600073ffffffffffffffffffffffffffffffffffffffff16838281518110620005db57620005da620011b3565b5b602002602001015173ffffffffffffffffffffffffffffffffffffffff1614156200063d576040517f08c379a0000000000000000000000000000000000000000000000000000000008152600401620006349062000eb6565b60405180910390fd5b80806200064a9062001107565b915050620005a3565b5081600d90805190602001906200066c92919062000958565b5080600e908051906020019062000685929190620009e7565b507f5d2bfbaa8b7f0a1c8af86340416cb6051131510959c7fd9ab84a1c75fed9464f8282604051620006b992919062000e59565b60405180910390a15050565b620006d56200048b60201b60201c565b73ffffffffffffffffffffffffffffffffffffffff16620006fb6200081b60201b60201c565b73ffffffffffffffffffffffffffffffffffffffff161462000754576040517f08c379a00000000000000000000000000000000000000000000000000000000081526004016200074b9062000ed8565b60405180910390fd5b80600f90805190602001906200076c92919062000845565b5050565b620007806200048b60201b60201c565b73ffffffffffffffffffffffffffffffffffffffff16620007a66200081b60201b60201c565b73ffffffffffffffffffffffffffffffffffffffff1614620007ff576040517f08c379a0000000000000000000000000000000000000000000000000000000008152600401620007f69062000ed8565b60405180910390fd5b80601190805190602001906200081792919062000845565b5050565b6000600a60009054906101000a900473ffffffffffffffffffffffffffffffffffffffff16905090565b82805462000853906200109b565b90600052602060002090601f016020900481019282620008775760008555620008c3565b82601f106200089257805160ff1916838001178555620008c3565b82800160010185558215620008c3579182015b82811115620008c2578251825591602001919060010190620008a5565b5b509050620008d2919062000a39565b5090565b826002810192821562000945579160200282015b82811115620009445782518260006101000a81548173ffffffffffffffffffffffffffffffffffffffff021916908373ffffffffffffffffffffffffffffffffffffffff16021790555091602001919060010190620008ea565b5b50905062000954919062000a39565b5090565b828054828255906000526020600020908101928215620009d4579160200282015b82811115620009d35782518260006101000a81548173ffffffffffffffffffffffffffffffffffffffff021916908373ffffffffffffffffffffffffffffffffffffffff1602179055509160200191906001019062000979565b5b509050620009e3919062000a39565b5090565b82805482825590600052602060002090810192821562000a26579160200282015b8281111562000a2557825182559160200191906001019062000a08565b5b50905062000a35919062000a39565b5090565b5b8082111562000a5457600081600090555060010162000a3a565b5090565b600062000a6f62000a698462000f45565b62000f1c565b9050808285602086028201111562000a8c5762000a8b62001216565b5b60005b8581101562000ac0578162000aa5888262000b15565b84526020840193506020830192505060018101905062000a8f565b5050509392505050565b600062000ae162000adb8462000f6e565b62000f1c565b90508281526020810184848401111562000b005762000aff6200121b565b5b62000b0d84828562001065565b509392505050565b60008151905062000b2681620012df565b92915050565b600082601f83011262000b445762000b4362001211565b5b600262000b5384828562000a58565b91505092915050565b600082601f83011262000b745762000b7362001211565b5b815162000b8684826020860162000aca565b91505092915050565b600080600080600060c0868803121562000bae5762000bad62001225565b5b600086015167ffffffffffffffff81111562000bcf5762000bce62001220565b5b62000bdd8882890162000b5c565b955050602086015167ffffffffffffffff81111562000c015762000c0062001220565b5b62000c0f8882890162000b5c565b945050604086015167ffffffffffffffff81111562000c335762000c3262001220565b5b62000c418882890162000b5c565b935050606086015167ffffffffffffffff81111562000c655762000c6462001220565b5b62000c738882890162000b5c565b925050608062000c868882890162000b2c565b9150509295509295909350565b600062000ca1838362000cc7565b60208301905092915050565b600062000cbb838362000e48565b60208301905092915050565b62000cd28162001027565b82525050565b600062000ce58262000fc4565b62000cf1818562000ff4565b935062000cfe8362000fa4565b8060005b8381101562000d3557815162000d19888262000c93565b975062000d268362000fda565b92505060018101905062000d02565b5085935050505092915050565b600062000d4f8262000fcf565b62000d5b818562001005565b935062000d688362000fb4565b8060005b8381101562000d9f57815162000d83888262000cad565b975062000d908362000fe7565b92505060018101905062000d6c565b5085935050505092915050565b600062000dbb600f8362001016565b915062000dc8826200123b565b602082019050919050565b600062000de260188362001016565b915062000def8262001264565b602082019050919050565b600062000e0960208362001016565b915062000e16826200128d565b602082019050919050565b600062000e3060198362001016565b915062000e3d82620012b6565b602082019050919050565b62000e53816200105b565b82525050565b6000604082019050818103600083015262000e75818562000cd8565b9050818103602083015262000e8b818462000d42565b90509392505050565b6000602082019050818103600083015262000eaf8162000dac565b9050919050565b6000602082019050818103600083015262000ed18162000dd3565b9050919050565b6000602082019050818103600083015262000ef38162000dfa565b9050919050565b6000602082019050818103600083015262000f158162000e21565b9050919050565b600062000f2862000f3b565b905062000f368282620010d1565b919050565b6000604051905090565b600067ffffffffffffffff82111562000f635762000f62620011e2565b5b602082029050919050565b600067ffffffffffffffff82111562000f8c5762000f8b620011e2565b5b62000f97826200122a565b9050602081019050919050565b6000819050602082019050919050565b6000819050602082019050919050565b600081519050919050565b600081519050919050565b6000602082019050919050565b6000602082019050919050565b600082825260208201905092915050565b600082825260208201905092915050565b600082825260208201905092915050565b600062001034826200103b565b9050919050565b600073ffffffffffffffffffffffffffffffffffffffff82169050919050565b6000819050919050565b60005b838110156200108557808201518184015260208101905062001068565b8381111562001095576000848401525b50505050565b60006002820490506001821680620010b457607f821691505b60208210811415620010cb57620010ca62001184565b5b50919050565b620010dc826200122a565b810181811067ffffffffffffffff82111715620010fe57620010fd620011e2565b5b80604052505050565b600062001114826200105b565b91507fffffffffffffffffffffffffffffffffffffffffffffffffffffffffffffffff8214156200114a576200114962001155565b5b600182019050919050565b7f4e487b7100000000000000000000000000000000000000000000000000000000600052601160045260246000fd5b7f4e487b7100000000000000000000000000000000000000000000000000000000600052602260045260246000fd5b7f4e487b7100000000000000000000000000000000000000000000000000000000600052603260045260246000fd5b7f4e487b7100000000000000000000000000000000000000000000000000000000600052604160045260246000fd5b600080fd5b600080fd5b600080fd5b600080fd5b600080fd5b6000601f19601f8301169050919050565b7f496e76616c696420616464726573730000000000000000000000000000000000600082015250565b7f4d757374206e6f74206265207a65726f2d616464726573730000000000000000600082015250565b7f4f776e61626c653a2063616c6c6572206973206e6f7420746865206f776e6572600082015250565b7f696e707574206c656e677468206d7573742062652073616d6500000000000000600082015250565b620012ea8162001027565b8114620012f657600080fd5b50565b6159fd80620013096000396000f3fe6080604052600436106102ae5760003560e01c80636352211e11610175578063b9c4d9fb116100dc578063d0eb26b011610095578063e985e9c51161006f578063e985e9c514610ae0578063edec5f2714610b1d578063f2c4ce1e14610b46578063f2fde38b14610b6f576102ae565b8063d0eb26b014610a63578063d5abeb0114610a8c578063da3ef23f14610ab7576102ae565b8063b9c4d9fb14610919578063ba4e5c4914610956578063ba7d2c7614610993578063c3a983b2146109be578063c6682862146109fb578063c87b56dd14610a26576102ae565b806395d89b411161012e57806395d89b411461083e5780639c70b51214610869578063a0712d6814610894578063a22cb465146108b0578063a475b5dd146108d9578063b88d4fde146108f0576102ae565b80636352211e1461072e5780636c0360eb1461076b57806370a0823114610796578063715018a6146107d35780637f00c7a6146107ea5780638da5cb5b14610813576102ae565b806323b872dd11610219578063438b6300116101d2578063438b63001461060c57806344a0d68a146106495780634f6ccce71461067257806351830227146106af57806355f804b3146106da5780635c975abb14610703576102ae565b806323b872dd1461050d5780632f745c59146105365780633af32abf146105735780633c952764146105b05780633ccfd60b146105d957806342842e0e146105e3576102ae565b80630ebd4c7f1161026b5780630ebd4c7f146103d55780631196a0c41461041257806313faede61461044f57806318160ddd1461047a57806318cae269146104a5578063239c70ae146104e2576102ae565b806301ffc9a7146102b357806302329a29146102f057806306fdde0314610319578063081812fc14610344578063081c8c4414610381578063095ea7b3146103ac575b600080fd5b3480156102bf57600080fd5b506102da60048036038101906102d5919061424d565b610b98565b6040516102e79190614a56565b60405180910390f35b3480156102fc57600080fd5b5061031760048036038101906103129190614220565b610bba565b005b34801561032557600080fd5b5061032e610c53565b60405161033b9190614a71565b60405180910390f35b34801561035057600080fd5b5061036b600480360381019061036691906142f0565b610ce5565b6040516103789190614959565b60405180910390f35b34801561038d57600080fd5b50610396610d6a565b6040516103a39190614a71565b60405180910390f35b3480156103b857600080fd5b506103d360048036038101906103ce9190614193565b610df8565b005b3480156103e157600080fd5b506103fc60048036038101906103f791906142f0565b610f10565b6040516104099190614a34565b60405180910390f35b34801561041e57600080fd5b50610439600480360381019061043491906142f0565b6111f1565b6040516104469190614db3565b60405180910390f35b34801561045b57600080fd5b50610464611215565b6040516104719190614db3565b60405180910390f35b34801561048657600080fd5b5061048f61121b565b60405161049c9190614db3565b60405180910390f35b3480156104b157600080fd5b506104cc60048036038101906104c79190614010565b611228565b6040516104d99190614db3565b60405180910390f35b3480156104ee57600080fd5b506104f7611240565b6040516105049190614db3565b60405180910390f35b34801561051957600080fd5b50610534600480360381019061052f919061407d565b611246565b005b34801561054257600080fd5b5061055d60048036038101906105589190614193565b6112a6565b60405161056a9190614db3565b60405180910390f35b34801561057f57600080fd5b5061059a60048036038101906105959190614010565b61134b565b6040516105a79190614a56565b60405180910390f35b3480156105bc57600080fd5b506105d760048036038101906105d29190614220565b6113fa565b005b6105e1611493565b005b3480156105ef57600080fd5b5061060a6004803603810190610605919061407d565b611588565b005b34801561061857600080fd5b50610633600480360381019061062e9190614010565b6115a8565b6040516106409190614a34565b60405180910390f35b34801561065557600080fd5b50610670600480360381019061066b91906142f0565b611656565b005b34801561067e57600080fd5b50610699600480360381019061069491906142f0565b6116dc565b6040516106a69190614db3565b60405180910390f35b3480156106bb57600080fd5b506106c461174d565b6040516106d19190614a56565b60405180910390f35b3480156106e657600080fd5b5061070160048036038101906106fc91906142a7565b611760565b005b34801561070f57600080fd5b506107186117f6565b6040516107259190614a56565b60405180910390f35b34801561073a57600080fd5b50610755600480360381019061075091906142f0565b611809565b6040516107629190614959565b60405180910390f35b34801561077757600080fd5b506107806118bb565b60405161078d9190614a71565b60405180910390f35b3480156107a257600080fd5b506107bd60048036038101906107b89190614010565b611949565b6040516107ca9190614db3565b60405180910390f35b3480156107df57600080fd5b506107e8611a01565b005b3480156107f657600080fd5b50610811600480360381019061080c91906142f0565b611a89565b005b34801561081f57600080fd5b50610828611b0f565b6040516108359190614959565b60405180910390f35b34801561084a57600080fd5b50610853611b39565b6040516108609190614a71565b60405180910390f35b34801561087557600080fd5b5061087e611bcb565b60405161088b9190614a56565b60405180910390f35b6108ae60048036038101906108a991906142f0565b611bde565b005b3480156108bc57600080fd5b506108d760048036038101906108d29190614153565b611f6d565b005b3480156108e557600080fd5b506108ee6120ee565b005b3480156108fc57600080fd5b50610917600480360381019061091291906140d0565b612187565b005b34801561092557600080fd5b50610940600480360381019061093b91906142f0565b6121e9565b60405161094d9190614a12565b60405180910390f35b34801561096257600080fd5b5061097d600480360381019061097891906142f0565b61257c565b60405161098a9190614959565b60405180910390f35b34801561099f57600080fd5b506109a86125bb565b6040516109b59190614db3565b60405180910390f35b3480156109ca57600080fd5b506109e560048036038101906109e091906142f0565b6125c1565b6040516109f29190614974565b60405180910390f35b348015610a0757600080fd5b50610a10612600565b604051610a1d9190614a71565b60405180910390f35b348015610a3257600080fd5b50610a4d6004803603810190610a4891906142f0565b61268e565b604051610a5a9190614a71565b60405180910390f35b348015610a6f57600080fd5b50610a8a6004803603810190610a8591906142f0565b6127e7565b005b348015610a9857600080fd5b50610aa161286d565b604051610aae9190614db3565b60405180910390f35b348015610ac357600080fd5b50610ade6004803603810190610ad991906142a7565b612873565b005b348015610aec57600080fd5b50610b076004803603810190610b02919061403d565b612909565b604051610b149190614a56565b60405180910390f35b348015610b2957600080fd5b50610b446004803603810190610b3f91906141d3565b61299d565b005b348015610b5257600080fd5b50610b6d6004803603810190610b6891906142a7565b612a3d565b005b348015610b7b57600080fd5b50610b966004803603810190610b919190614010565b612ad3565b005b6000610ba382612bcb565b80610bb35750610bb282612cad565b5b9050919050565b610bc2612d17565b73ffffffffffffffffffffffffffffffffffffffff16610be0611b0f565b73ffffffffffffffffffffffffffffffffffffffff1614610c36576040517f08c379a0000000000000000000000000000000000000000000000000000000008152600401610c2d90614c73565b60405180910390fd5b80601660006101000a81548160ff02191690831515021790555050565b606060008054610c6290615107565b80601f0160208091040260200160405190810160405280929190818152602001828054610c8e90615107565b8015610cdb5780601f10610cb057610100808354040283529160200191610cdb565b820191906000526020600020905b815481529060010190602001808311610cbe57829003601f168201915b5050505050905090565b6000610cf082612d1f565b610d2f576040517f08c379a0000000000000000000000000000000000000000000000000000000008152600401610d2690614c53565b60405180910390fd5b6004600083815260200190815260200160002060009054906101000a900473ffffffffffffffffffffffffffffffffffffffff169050919050565b60118054610d7790615107565b80601f0160208091040260200160405190810160405280929190818152602001828054610da390615107565b8015610df05780601f10610dc557610100808354040283529160200191610df0565b820191906000526020600020905b815481529060010190602001808311610dd357829003601f168201915b505050505081565b6000610e0382611809565b90508073ffffffffffffffffffffffffffffffffffffffff168373ffffffffffffffffffffffffffffffffffffffff161415610e74576040517f08c379a0000000000000000000000000000000000000000000000000000000008152600401610e6b90614cf3565b60405180910390fd5b8073ffffffffffffffffffffffffffffffffffffffff16610e93612d17565b73ffffffffffffffffffffffffffffffffffffffff161480610ec25750610ec181610ebc612d17565b612909565b5b610f01576040517f08c379a0000000000000000000000000000000000000000000000000000000008152600401610ef890614b93565b60405180910390fd5b610f0b8383612d8b565b505050565b60606000600b6000600c60008681526020019081526020016000205481526020019081526020016000206040518060600160405290816000820160009054906101000a900460ff1615151515815260200160018201805480602002602001604051908101604052809291908181526020018280548015610fe557602002820191906000526020600020905b8160009054906101000a900473ffffffffffffffffffffffffffffffffffffffff1673ffffffffffffffffffffffffffffffffffffffff1681526020019060010190808311610f9b575b505050505081526020016002820180548060200260200160405190810160405280929190818152602001828054801561103d57602002820191906000526020600020905b815481526020019060010190808311611029575b505050505081525050905080600001516110aa57600e80548060200260200160405190810160405280929190818152602001828054801561109d57602002820191906000526020600020905b815481526020019060010190808311611089575b50505050509150506111ec565b6000816040015151600e805490506110c29190614f2a565b905060008167ffffffffffffffff8111156110e0576110df6152cf565b5b60405190808252806020026020018201604052801561110e5781602001602082028036833780820191505090505b50905060005b600e8054905081101561117257600e8181548110611135576111346152a0565b5b9060005260206000200154828281518110611153576111526152a0565b5b602002602001018181525050808061116a9061516a565b915050611114565b5060005b8360400151518110156111e4578360400151818151811061119a576111996152a0565b5b602002602001015182600d80549050836111b49190614f2a565b815181106111c5576111c46152a0565b5b60200260200101818152505080806111dc9061516a565b915050611176565b508093505050505b919050565b600e818154811061120157600080fd5b906000526020600020016000915090505481565b60125481565b6000600880549050905090565b601a6020528060005260406000206000915090505481565b60145481565b611257611251612d17565b82612e44565b611296576040517f08c379a000000000000000000000000000000000000000000000000000000000815260040161128d90614d33565b60405180910390fd5b6112a1838383612f22565b505050565b60006112b183611949565b82106112f2576040517f08c379a00000000000000000000000000000000000000000000000000000000081526004016112e990614a93565b60405180910390fd5b600660008473ffffffffffffffffffffffffffffffffffffffff1673ffffffffffffffffffffffffffffffffffffffff168152602001908152602001600020600083815260200190815260200160002054905092915050565b600080600090505b6017805490508110156113ef578273ffffffffffffffffffffffffffffffffffffffff166017828154811061138b5761138a6152a0565b5b9060005260206000200160009054906101000a900473ffffffffffffffffffffffffffffffffffffffff1673ffffffffffffffffffffffffffffffffffffffff1614156113dc5760019150506113f5565b80806113e79061516a565b915050611353565b50600090505b919050565b611402612d17565b73ffffffffffffffffffffffffffffffffffffffff16611420611b0f565b73ffffffffffffffffffffffffffffffffffffffff1614611476576040517f08c379a000000000000000000000000000000000000000000000000000000000815260040161146d90614c73565b60405180910390fd5b80601660026101000a81548160ff02191690831515021790555050565b61149b612d17565b73ffffffffffffffffffffffffffffffffffffffff166114b9611b0f565b73ffffffffffffffffffffffffffffffffffffffff161461150f576040517f08c379a000000000000000000000000000000000000000000000000000000000815260040161150690614c73565b60405180910390fd5b60003373ffffffffffffffffffffffffffffffffffffffff164760405161153590614944565b60006040518083038185875af1925050503d8060008114611572576040519150601f19603f3d011682016040523d82523d6000602084013e611577565b606091505b505090508061158557600080fd5b50565b6115a383838360405180602001604052806000815250612187565b505050565b606060006115b583611949565b905060008167ffffffffffffffff8111156115d3576115d26152cf565b5b6040519080825280602002602001820160405280156116015781602001602082028036833780820191505090505b50905060005b8281101561164b5761161985826112a6565b82828151811061162c5761162b6152a0565b5b60200260200101818152505080806116439061516a565b915050611607565b508092505050919050565b61165e612d17565b73ffffffffffffffffffffffffffffffffffffffff1661167c611b0f565b73ffffffffffffffffffffffffffffffffffffffff16146116d2576040517f08c379a00000000000000000000000000000000000000000000000000000000081526004016116c990614c73565b60405180910390fd5b8060128190555050565b60006116e661121b565b8210611727576040517f08c379a000000000000000000000000000000000000000000000000000000000815260040161171e90614d53565b60405180910390fd5b6008828154811061173b5761173a6152a0565b5b90600052602060002001549050919050565b601660019054906101000a900460ff1681565b611768612d17565b73ffffffffffffffffffffffffffffffffffffffff16611786611b0f565b73ffffffffffffffffffffffffffffffffffffffff16146117dc576040517f08c379a00000000000000000000000000000000000000000000000000000000081526004016117d390614c73565b60405180910390fd5b80600f90805190602001906117f2929190613d0d565b5050565b601660009054906101000a900460ff1681565b6000806002600084815260200190815260200160002060009054906101000a900473ffffffffffffffffffffffffffffffffffffffff169050600073ffffffffffffffffffffffffffffffffffffffff168173ffffffffffffffffffffffffffffffffffffffff1614156118b2576040517f08c379a00000000000000000000000000000000000000000000000000000000081526004016118a990614bd3565b60405180910390fd5b80915050919050565b600f80546118c890615107565b80601f01602080910402602001604051908101604052809291908181526020018280546118f490615107565b80156119415780601f1061191657610100808354040283529160200191611941565b820191906000526020600020905b81548152906001019060200180831161192457829003601f168201915b505050505081565b60008073ffffffffffffffffffffffffffffffffffffffff168273ffffffffffffffffffffffffffffffffffffffff1614156119ba576040517f08c379a00000000000000000000000000000000000000000000000000000000081526004016119b190614bb3565b60405180910390fd5b600360008373ffffffffffffffffffffffffffffffffffffffff1673ffffffffffffffffffffffffffffffffffffffff168152602001908152602001600020549050919050565b611a09612d17565b73ffffffffffffffffffffffffffffffffffffffff16611a27611b0f565b73ffffffffffffffffffffffffffffffffffffffff1614611a7d576040517f08c379a0000000000000000000000000000000000000000000000000000000008152600401611a7490614c73565b60405180910390fd5b611a87600061317e565b565b611a91612d17565b73ffffffffffffffffffffffffffffffffffffffff16611aaf611b0f565b73ffffffffffffffffffffffffffffffffffffffff1614611b05576040517f08c379a0000000000000000000000000000000000000000000000000000000008152600401611afc90614c73565b60405180910390fd5b8060148190555050565b6000600a60009054906101000a900473ffffffffffffffffffffffffffffffffffffffff16905090565b606060018054611b4890615107565b80601f0160208091040260200160405190810160405280929190818152602001828054611b7490615107565b8015611bc15780601f10611b9657610100808354040283529160200191611bc1565b820191906000526020600020905b815481529060010190602001808311611ba457829003601f168201915b5050505050905090565b601660029054906101000a900460ff1681565b601660009054906101000a900460ff1615611c2e576040517f08c379a0000000000000000000000000000000000000000000000000000000008152600401611c2590614c93565b60405180910390fd5b6000611c3861121b565b905060008211611c7d576040517f08c379a0000000000000000000000000000000000000000000000000000000008152600401611c7490614d93565b60405180910390fd5b601454821115611cc2576040517f08c379a0000000000000000000000000000000000000000000000000000000008152600401611cb990614c13565b60405180910390fd5b6013548282611cd19190614f2a565b1115611d12576040517f08c379a0000000000000000000000000000000000000000000000000000000008152600401611d0990614bf3565b60405180910390fd5b611d1a611b0f565b73ffffffffffffffffffffffffffffffffffffffff163373ffffffffffffffffffffffffffffffffffffffff1614611e975760011515601660029054906101000a900460ff1615151415611e4657611d713361134b565b611db0576040517f08c379a0000000000000000000000000000000000000000000000000000000008152600401611da790614d73565b60405180910390fd5b6000601a60003373ffffffffffffffffffffffffffffffffffffffff1673ffffffffffffffffffffffffffffffffffffffff1681526020019081526020016000205490506015548382611e039190614f2a565b1115611e44576040517f08c379a0000000000000000000000000000000000000000000000000000000008152600401611e3b90614b13565b60405180910390fd5b505b81601254611e549190614fb1565b341015611e96576040517f08c379a0000000000000000000000000000000000000000000000000000000008152600401611e8d90614d13565b60405180910390fd5b5b6000600190505b828111611f6857601a60003373ffffffffffffffffffffffffffffffffffffffff1673ffffffffffffffffffffffffffffffffffffffff1681526020019081526020016000206000815480929190611ef59061516a565b9190505550611f0f338284611f0a9190614f2a565b613244565b7f27f581175c28f51fe9447b724f6ec52c8335d03b958107f6fb14e955981af4c033848385611f3e9190614f2a565b604051611f4d939291906149db565b60405180910390a18080611f609061516a565b915050611e9e565b505050565b611f75612d17565b73ffffffffffffffffffffffffffffffffffffffff168273ffffffffffffffffffffffffffffffffffffffff161415611fe3576040517f08c379a0000000000000000000000000000000000000000000000000000000008152600401611fda90614b53565b60405180910390fd5b8060056000611ff0612d17565b73ffffffffffffffffffffffffffffffffffffffff1673ffffffffffffffffffffffffffffffffffffffff16815260200190815260200160002060008473ffffffffffffffffffffffffffffffffffffffff1673ffffffffffffffffffffffffffffffffffffffff16815260200190815260200160002060006101000a81548160ff0219169083151502179055508173ffffffffffffffffffffffffffffffffffffffff1661209d612d17565b73ffffffffffffffffffffffffffffffffffffffff167f17307eab39ab6107e8899845ad3d59bd9653f200f220920489ca2b5937696c31836040516120e29190614a56565b60405180910390a35050565b6120f6612d17565b73ffffffffffffffffffffffffffffffffffffffff16612114611b0f565b73ffffffffffffffffffffffffffffffffffffffff161461216a576040517f08c379a000000000000000000000000000000000000000000000000000000000815260040161216190614c73565b60405180910390fd5b6001601660016101000a81548160ff021916908315150217905550565b612198612192612d17565b83612e44565b6121d7576040517f08c379a00000000000000000000000000000000000000000000000000000000081526004016121ce90614d33565b60405180910390fd5b6121e384848484613262565b50505050565b60606000600b6000600c60008681526020019081526020016000205481526020019081526020016000206040518060600160405290816000820160009054906101000a900460ff16151515158152602001600182018054806020026020016040519081016040528092919081815260200182805480156122be57602002820191906000526020600020905b8160009054906101000a900473ffffffffffffffffffffffffffffffffffffffff1673ffffffffffffffffffffffffffffffffffffffff1681526020019060010190808311612274575b505050505081526020016002820180548060200260200160405190810160405280929190818152602001828054801561231657602002820191906000526020600020905b815481526020019060010190808311612302575b505050505081525050905080600001516123b957600d8054806020026020016040519081016040528092919081815260200182805480156123ac57602002820191906000526020600020905b8160009054906101000a900473ffffffffffffffffffffffffffffffffffffffff1673ffffffffffffffffffffffffffffffffffffffff1681526020019060010190808311612362575b5050505050915050612577565b6000816020015151600d805490506123d19190614f2a565b905060008167ffffffffffffffff8111156123ef576123ee6152cf565b5b60405190808252806020026020018201604052801561241d5781602001602082028036833780820191505090505b50905060005b600d805490508110156124cf57600d8181548110612444576124436152a0565b5b9060005260206000200160009054906101000a900473ffffffffffffffffffffffffffffffffffffffff16828281518110612482576124816152a0565b5b602002602001019073ffffffffffffffffffffffffffffffffffffffff16908173ffffffffffffffffffffffffffffffffffffffff168152505080806124c79061516a565b915050612423565b5060005b83602001515181101561256f57836020015181815181106124f7576124f66152a0565b5b602002602001015182600d80549050836125119190614f2a565b81518110612522576125216152a0565b5b602002602001019073ffffffffffffffffffffffffffffffffffffffff16908173ffffffffffffffffffffffffffffffffffffffff168152505080806125679061516a565b9150506124d3565b508093505050505b919050565b6017818154811061258c57600080fd5b906000526020600020016000915054906101000a900473ffffffffffffffffffffffffffffffffffffffff1681565b60155481565b600d81815481106125d157600080fd5b906000526020600020016000915054906101000a900473ffffffffffffffffffffffffffffffffffffffff1681565b6010805461260d90615107565b80601f016020809104026020016040519081016040528092919081815260200182805461263990615107565b80156126865780601f1061265b57610100808354040283529160200191612686565b820191906000526020600020905b81548152906001019060200180831161266957829003601f168201915b505050505081565b606061269982612d1f565b6126d8576040517f08c379a00000000000000000000000000000000000000000000000000000000081526004016126cf90614cd3565b60405180910390fd5b60001515601660019054906101000a900460ff1615151415612786576011805461270190615107565b80601f016020809104026020016040519081016040528092919081815260200182805461272d90615107565b801561277a5780601f1061274f5761010080835404028352916020019161277a565b820191906000526020600020905b81548152906001019060200180831161275d57829003601f168201915b505050505090506127e2565b60006127906132be565b905060008151116127b057604051806020016040528060008152506127de565b806127ba84613350565b60106040516020016127ce93929190614913565b6040516020818303038152906040525b9150505b919050565b6127ef612d17565b73ffffffffffffffffffffffffffffffffffffffff1661280d611b0f565b73ffffffffffffffffffffffffffffffffffffffff1614612863576040517f08c379a000000000000000000000000000000000000000000000000000000000815260040161285a90614c73565b60405180910390fd5b8060158190555050565b60135481565b61287b612d17565b73ffffffffffffffffffffffffffffffffffffffff16612899611b0f565b73ffffffffffffffffffffffffffffffffffffffff16146128ef576040517f08c379a00000000000000000000000000000000000000000000000000000000081526004016128e690614c73565b60405180910390fd5b8060109080519060200190612905929190613d0d565b5050565b6000600560008473ffffffffffffffffffffffffffffffffffffffff1673ffffffffffffffffffffffffffffffffffffffff16815260200190815260200160002060008373ffffffffffffffffffffffffffffffffffffffff1673ffffffffffffffffffffffffffffffffffffffff16815260200190815260200160002060009054906101000a900460ff16905092915050565b6129a5612d17565b73ffffffffffffffffffffffffffffffffffffffff166129c3611b0f565b73ffffffffffffffffffffffffffffffffffffffff1614612a19576040517f08c379a0000000000000000000000000000000000000000000000000000000008152600401612a1090614c73565b60405180910390fd5b60176000612a279190613d93565b818160179190612a38929190613db4565b505050565b612a45612d17565b73ffffffffffffffffffffffffffffffffffffffff16612a63611b0f565b73ffffffffffffffffffffffffffffffffffffffff1614612ab9576040517f08c379a0000000000000000000000000000000000000000000000000000000008152600401612ab090614c73565b60405180910390fd5b8060119080519060200190612acf929190613d0d565b5050565b612adb612d17565b73ffffffffffffffffffffffffffffffffffffffff16612af9611b0f565b73ffffffffffffffffffffffffffffffffffffffff1614612b4f576040517f08c379a0000000000000000000000000000000000000000000000000000000008152600401612b4690614c73565b60405180910390fd5b600073ffffffffffffffffffffffffffffffffffffffff168173ffffffffffffffffffffffffffffffffffffffff161415612bbf576040517f08c379a0000000000000000000000000000000000000000000000000000000008152600401612bb690614ad3565b60405180910390fd5b612bc88161317e565b50565b60007f80ac58cd000000000000000000000000000000000000000000000000000000007bffffffffffffffffffffffffffffffffffffffffffffffffffffffff1916827bffffffffffffffffffffffffffffffffffffffffffffffffffffffff19161480612c9657507f5b5e139f000000000000000000000000000000000000000000000000000000007bffffffffffffffffffffffffffffffffffffffffffffffffffffffff1916827bffffffffffffffffffffffffffffffffffffffffffffffffffffffff1916145b80612ca65750612ca5826134b1565b5b9050919050565b60007fb7799584000000000000000000000000000000000000000000000000000000007bffffffffffffffffffffffffffffffffffffffffffffffffffffffff1916827bffffffffffffffffffffffffffffffffffffffffffffffffffffffff1916149050919050565b600033905090565b60008073ffffffffffffffffffffffffffffffffffffffff166002600084815260200190815260200160002060009054906101000a900473ffffffffffffffffffffffffffffffffffffffff1673ffffffffffffffffffffffffffffffffffffffff1614159050919050565b816004600083815260200190815260200160002060006101000a81548173ffffffffffffffffffffffffffffffffffffffff021916908373ffffffffffffffffffffffffffffffffffffffff160217905550808273ffffffffffffffffffffffffffffffffffffffff16612dfe83611809565b73ffffffffffffffffffffffffffffffffffffffff167f8c5be1e5ebec7d5bd14f71427d1e84f3dd0314c0f7b2291e5b200ac8c7c3b92560405160405180910390a45050565b6000612e4f82612d1f565b612e8e576040517f08c379a0000000000000000000000000000000000000000000000000000000008152600401612e8590614b73565b60405180910390fd5b6000612e9983611809565b90508073ffffffffffffffffffffffffffffffffffffffff168473ffffffffffffffffffffffffffffffffffffffff161480612f0857508373ffffffffffffffffffffffffffffffffffffffff16612ef084610ce5565b73ffffffffffffffffffffffffffffffffffffffff16145b80612f195750612f188185612909565b5b91505092915050565b8273ffffffffffffffffffffffffffffffffffffffff16612f4282611809565b73ffffffffffffffffffffffffffffffffffffffff1614612f98576040517f08c379a0000000000000000000000000000000000000000000000000000000008152600401612f8f90614cb3565b60405180910390fd5b600073ffffffffffffffffffffffffffffffffffffffff168273ffffffffffffffffffffffffffffffffffffffff161415613008576040517f08c379a0000000000000000000000000000000000000000000000000000000008152600401612fff90614b33565b60405180910390fd5b61301383838361351b565b61301e600082612d8b565b6001600360008573ffffffffffffffffffffffffffffffffffffffff1673ffffffffffffffffffffffffffffffffffffffff168152602001908152602001600020600082825461306e919061500b565b925050819055506001600360008473ffffffffffffffffffffffffffffffffffffffff1673ffffffffffffffffffffffffffffffffffffffff16815260200190815260200160002060008282546130c59190614f2a565b92505081905550816002600083815260200190815260200160002060006101000a81548173ffffffffffffffffffffffffffffffffffffffff021916908373ffffffffffffffffffffffffffffffffffffffff160217905550808273ffffffffffffffffffffffffffffffffffffffff168473ffffffffffffffffffffffffffffffffffffffff167fddf252ad1be2c89b69c2b068fc378daa952ba7f163c4a11628f55a4df523b3ef60405160405180910390a4505050565b6000600a60009054906101000a900473ffffffffffffffffffffffffffffffffffffffff16905081600a60006101000a81548173ffffffffffffffffffffffffffffffffffffffff021916908373ffffffffffffffffffffffffffffffffffffffff1602179055508173ffffffffffffffffffffffffffffffffffffffff168173ffffffffffffffffffffffffffffffffffffffff167f8be0079c531659141344cd1fd0a4f28419497f9722a3daafe3b4186f6b6457e060405160405180910390a35050565b61325e82826040518060200160405280600081525061362f565b5050565b61326d848484612f22565b6132798484848461368a565b6132b8576040517f08c379a00000000000000000000000000000000000000000000000000000000081526004016132af90614ab3565b60405180910390fd5b50505050565b6060600f80546132cd90615107565b80601f01602080910402602001604051908101604052809291908181526020018280546132f990615107565b80156133465780601f1061331b57610100808354040283529160200191613346565b820191906000526020600020905b81548152906001019060200180831161332957829003601f168201915b5050505050905090565b60606000821415613398576040518060400160405280600181526020017f300000000000000000000000000000000000000000000000000000000000000081525090506134ac565b600082905060005b600082146133ca5780806133b39061516a565b915050600a826133c39190614f80565b91506133a0565b60008167ffffffffffffffff8111156133e6576133e56152cf565b5b6040519080825280601f01601f1916602001820160405280156134185781602001600182028036833780820191505090505b5090505b600085146134a557600182613431919061500b565b9150600a8561344091906151b3565b603061344c9190614f2a565b60f81b818381518110613462576134616152a0565b5b60200101907effffffffffffffffffffffffffffffffffffffffffffffffffffffffffffff1916908160001a905350600a8561349e9190614f80565b945061341c565b8093505050505b919050565b60007f01ffc9a7000000000000000000000000000000000000000000000000000000007bffffffffffffffffffffffffffffffffffffffffffffffffffffffff1916827bffffffffffffffffffffffffffffffffffffffffffffffffffffffff1916149050919050565b613526838383613821565b600073ffffffffffffffffffffffffffffffffffffffff168373ffffffffffffffffffffffffffffffffffffffff1614156135695761356481613826565b6135a8565b8173ffffffffffffffffffffffffffffffffffffffff168373ffffffffffffffffffffffffffffffffffffffff16146135a7576135a6838261386f565b5b5b600073ffffffffffffffffffffffffffffffffffffffff168273ffffffffffffffffffffffffffffffffffffffff1614156135eb576135e6816139dc565b61362a565b8273ffffffffffffffffffffffffffffffffffffffff168273ffffffffffffffffffffffffffffffffffffffff1614613629576136288282613aad565b5b5b505050565b6136398383613b2c565b613646600084848461368a565b613685576040517f08c379a000000000000000000000000000000000000000000000000000000000815260040161367c90614ab3565b60405180910390fd5b505050565b60006136ab8473ffffffffffffffffffffffffffffffffffffffff16613cfa565b15613814578373ffffffffffffffffffffffffffffffffffffffff1663150b7a026136d4612d17565b8786866040518563ffffffff1660e01b81526004016136f6949392919061498f565b602060405180830381600087803b15801561371057600080fd5b505af192505050801561374157506040513d601f19601f8201168201806040525081019061373e919061427a565b60015b6137c4573d8060008114613771576040519150601f19603f3d011682016040523d82523d6000602084013e613776565b606091505b506000815114156137bc576040517f08c379a00000000000000000000000000000000000000000000000000000000081526004016137b390614ab3565b60405180910390fd5b805181602001fd5b63150b7a0260e01b7bffffffffffffffffffffffffffffffffffffffffffffffffffffffff1916817bffffffffffffffffffffffffffffffffffffffffffffffffffffffff191614915050613819565b600190505b949350505050565b505050565b6008805490506009600083815260200190815260200160002081905550600881908060018154018082558091505060019003906000526020600020016000909190919091505550565b6000600161387c84611949565b613886919061500b565b905060006007600084815260200190815260200160002054905081811461396b576000600660008673ffffffffffffffffffffffffffffffffffffffff1673ffffffffffffffffffffffffffffffffffffffff168152602001908152602001600020600084815260200190815260200160002054905080600660008773ffffffffffffffffffffffffffffffffffffffff1673ffffffffffffffffffffffffffffffffffffffff168152602001908152602001600020600084815260200190815260200160002081905550816007600083815260200190815260200160002081905550505b6007600084815260200190815260200160002060009055600660008573ffffffffffffffffffffffffffffffffffffffff1673ffffffffffffffffffffffffffffffffffffffff16815260200190815260200160002060008381526020019081526020016000206000905550505050565b600060016008805490506139f0919061500b565b9050600060096000848152602001908152602001600020549050600060088381548110613a2057613a1f6152a0565b5b906000526020600020015490508060088381548110613a4257613a416152a0565b5b906000526020600020018190555081600960008381526020019081526020016000208190555060096000858152602001908152602001600020600090556008805480613a9157613a90615271565b5b6001900381819060005260206000200160009055905550505050565b6000613ab883611949565b905081600660008573ffffffffffffffffffffffffffffffffffffffff1673ffffffffffffffffffffffffffffffffffffffff168152602001908152602001600020600083815260200190815260200160002081905550806007600084815260200190815260200160002081905550505050565b600073ffffffffffffffffffffffffffffffffffffffff168273ffffffffffffffffffffffffffffffffffffffff161415613b9c576040517f08c379a0000000000000000000000000000000000000000000000000000000008152600401613b9390614c33565b60405180910390fd5b613ba581612d1f565b15613be5576040517f08c379a0000000000000000000000000000000000000000000000000000000008152600401613bdc90614af3565b60405180910390fd5b613bf16000838361351b565b6001600360008473ffffffffffffffffffffffffffffffffffffffff1673ffffffffffffffffffffffffffffffffffffffff1681526020019081526020016000206000828254613c419190614f2a565b92505081905550816002600083815260200190815260200160002060006101000a81548173ffffffffffffffffffffffffffffffffffffffff021916908373ffffffffffffffffffffffffffffffffffffffff160217905550808273ffffffffffffffffffffffffffffffffffffffff16600073ffffffffffffffffffffffffffffffffffffffff167fddf252ad1be2c89b69c2b068fc378daa952ba7f163c4a11628f55a4df523b3ef60405160405180910390a45050565b600080823b905060008111915050919050565b828054613d1990615107565b90600052602060002090601f016020900481019282613d3b5760008555613d82565b82601f10613d5457805160ff1916838001178555613d82565b82800160010185558215613d82579182015b82811115613d81578251825591602001919060010190613d66565b5b509050613d8f9190613e54565b5090565b5080546000825590600052602060002090810190613db19190613e54565b50565b828054828255906000526020600020908101928215613e43579160200282015b82811115613e4257823573ffffffffffffffffffffffffffffffffffffffff168260006101000a81548173ffffffffffffffffffffffffffffffffffffffff021916908373ffffffffffffffffffffffffffffffffffffffff16021790555091602001919060010190613dd4565b5b509050613e509190613e54565b5090565b5b80821115613e6d576000816000905550600101613e55565b5090565b6000613e84613e7f84614df3565b614dce565b905082815260208101848484011115613ea057613e9f61530d565b5b613eab8482856150c5565b509392505050565b6000613ec6613ec184614e24565b614dce565b905082815260208101848484011115613ee257613ee161530d565b5b613eed8482856150c5565b509392505050565b600081359050613f048161596b565b92915050565b60008083601f840112613f2057613f1f615303565b5b8235905067ffffffffffffffff811115613f3d57613f3c6152fe565b5b602083019150836020820283011115613f5957613f58615308565b5b9250929050565b600081359050613f6f81615982565b92915050565b600081359050613f8481615999565b92915050565b600081519050613f9981615999565b92915050565b600082601f830112613fb457613fb3615303565b5b8135613fc4848260208601613e71565b91505092915050565b600082601f830112613fe257613fe1615303565b5b8135613ff2848260208601613eb3565b91505092915050565b60008135905061400a816159b0565b92915050565b60006020828403121561402657614025615317565b5b600061403484828501613ef5565b91505092915050565b6000806040838503121561405457614053615317565b5b600061406285828601613ef5565b925050602061407385828601613ef5565b9150509250929050565b60008060006060848603121561409657614095615317565b5b60006140a486828701613ef5565b93505060206140b586828701613ef5565b92505060406140c686828701613ffb565b9150509250925092565b600080600080608085870312156140ea576140e9615317565b5b60006140f887828801613ef5565b945050602061410987828801613ef5565b935050604061411a87828801613ffb565b925050606085013567ffffffffffffffff81111561413b5761413a615312565b5b61414787828801613f9f565b91505092959194509250565b6000806040838503121561416a57614169615317565b5b600061417885828601613ef5565b925050602061418985828601613f60565b9150509250929050565b600080604083850312156141aa576141a9615317565b5b60006141b885828601613ef5565b92505060206141c985828601613ffb565b9150509250929050565b600080602083850312156141ea576141e9615317565b5b600083013567ffffffffffffffff81111561420857614207615312565b5b61421485828601613f0a565b92509250509250929050565b60006020828403121561423657614235615317565b5b600061424484828501613f60565b91505092915050565b60006020828403121561426357614262615317565b5b600061427184828501613f75565b91505092915050565b6000602082840312156142905761428f615317565b5b600061429e84828501613f8a565b91505092915050565b6000602082840312156142bd576142bc615317565b5b600082013567ffffffffffffffff8111156142db576142da615312565b5b6142e784828501613fcd565b91505092915050565b60006020828403121561430657614305615317565b5b600061431484828501613ffb565b91505092915050565b6000614329838361434d565b60208301905092915050565b600061434183836148f5565b60208301905092915050565b61435681615051565b82525050565b61436581615051565b82525050565b6143748161503f565b82525050565b600061438582614e8a565b61438f8185614ed0565b935061439a83614e55565b8060005b838110156143cb5781516143b2888261431d565b97506143bd83614eb6565b92505060018101905061439e565b5085935050505092915050565b60006143e382614e95565b6143ed8185614ee1565b93506143f883614e65565b8060005b838110156144295781516144108882614335565b975061441b83614ec3565b9250506001810190506143fc565b5085935050505092915050565b61443f81615063565b82525050565b600061445082614ea0565b61445a8185614ef2565b935061446a8185602086016150d4565b6144738161531c565b840191505092915050565b600061448982614eab565b6144938185614f0e565b93506144a38185602086016150d4565b6144ac8161531c565b840191505092915050565b60006144c282614eab565b6144cc8185614f1f565b93506144dc8185602086016150d4565b80840191505092915050565b600081546144f581615107565b6144ff8186614f1f565b9450600182166000811461451a576001811461452b5761455e565b60ff1983168652818601935061455e565b61453485614e75565b60005b8381101561455657815481890152600182019150602081019050614537565b838801955050505b50505092915050565b6000614574602b83614f0e565b915061457f8261532d565b604082019050919050565b6000614597603283614f0e565b91506145a28261537c565b604082019050919050565b60006145ba602683614f0e565b91506145c5826153cb565b604082019050919050565b60006145dd601c83614f0e565b91506145e88261541a565b602082019050919050565b6000614600601c83614f0e565b915061460b82615443565b602082019050919050565b6000614623602483614f0e565b915061462e8261546c565b604082019050919050565b6000614646601983614f0e565b9150614651826154bb565b602082019050919050565b6000614669602c83614f0e565b9150614674826154e4565b604082019050919050565b600061468c603883614f0e565b915061469782615533565b604082019050919050565b60006146af602a83614f0e565b91506146ba82615582565b604082019050919050565b60006146d2602983614f0e565b91506146dd826155d1565b604082019050919050565b60006146f5601683614f0e565b915061470082615620565b602082019050919050565b6000614718602483614f0e565b915061472382615649565b604082019050919050565b600061473b602083614f0e565b915061474682615698565b602082019050919050565b600061475e602c83614f0e565b9150614769826156c1565b604082019050919050565b6000614781602083614f0e565b915061478c82615710565b602082019050919050565b60006147a4601683614f0e565b91506147af82615739565b602082019050919050565b60006147c7602983614f0e565b91506147d282615762565b604082019050919050565b60006147ea602f83614f0e565b91506147f5826157b1565b604082019050919050565b600061480d602183614f0e565b915061481882615800565b604082019050919050565b6000614830600083614f03565b915061483b8261584f565b600082019050919050565b6000614853601283614f0e565b915061485e82615852565b602082019050919050565b6000614876603183614f0e565b91506148818261587b565b604082019050919050565b6000614899602c83614f0e565b91506148a4826158ca565b604082019050919050565b60006148bc601783614f0e565b91506148c782615919565b602082019050919050565b60006148df601b83614f0e565b91506148ea82615942565b602082019050919050565b6148fe816150bb565b82525050565b61490d816150bb565b82525050565b600061491f82866144b7565b915061492b82856144b7565b915061493782846144e8565b9150819050949350505050565b600061494f82614823565b9150819050919050565b600060208201905061496e600083018461436b565b92915050565b6000602082019050614989600083018461435c565b92915050565b60006080820190506149a4600083018761436b565b6149b1602083018661436b565b6149be6040830185614904565b81810360608301526149d08184614445565b905095945050505050565b60006060820190506149f0600083018661436b565b6149fd6020830185614904565b614a0a6040830184614904565b949350505050565b60006020820190508181036000830152614a2c818461437a565b905092915050565b60006020820190508181036000830152614a4e81846143d8565b905092915050565b6000602082019050614a6b6000830184614436565b92915050565b60006020820190508181036000830152614a8b818461447e565b905092915050565b60006020820190508181036000830152614aac81614567565b9050919050565b60006020820190508181036000830152614acc8161458a565b9050919050565b60006020820190508181036000830152614aec816145ad565b9050919050565b60006020820190508181036000830152614b0c816145d0565b9050919050565b60006020820190508181036000830152614b2c816145f3565b9050919050565b60006020820190508181036000830152614b4c81614616565b9050919050565b60006020820190508181036000830152614b6c81614639565b9050919050565b60006020820190508181036000830152614b8c8161465c565b9050919050565b60006020820190508181036000830152614bac8161467f565b9050919050565b60006020820190508181036000830152614bcc816146a2565b9050919050565b60006020820190508181036000830152614bec816146c5565b9050919050565b60006020820190508181036000830152614c0c816146e8565b9050919050565b60006020820190508181036000830152614c2c8161470b565b9050919050565b60006020820190508181036000830152614c4c8161472e565b9050919050565b60006020820190508181036000830152614c6c81614751565b9050919050565b60006020820190508181036000830152614c8c81614774565b9050919050565b60006020820190508181036000830152614cac81614797565b9050919050565b60006020820190508181036000830152614ccc816147ba565b9050919050565b60006020820190508181036000830152614cec816147dd565b9050919050565b60006020820190508181036000830152614d0c81614800565b9050919050565b60006020820190508181036000830152614d2c81614846565b9050919050565b60006020820190508181036000830152614d4c81614869565b9050919050565b60006020820190508181036000830152614d6c8161488c565b9050919050565b60006020820190508181036000830152614d8c816148af565b9050919050565b60006020820190508181036000830152614dac816148d2565b9050919050565b6000602082019050614dc86000830184614904565b92915050565b6000614dd8614de9565b9050614de48282615139565b919050565b6000604051905090565b600067ffffffffffffffff821115614e0e57614e0d6152cf565b5b614e178261531c565b9050602081019050919050565b600067ffffffffffffffff821115614e3f57614e3e6152cf565b5b614e488261531c565b9050602081019050919050565b6000819050602082019050919050565b6000819050602082019050919050565b60008190508160005260206000209050919050565b600081519050919050565b600081519050919050565b600081519050919050565b600081519050919050565b6000602082019050919050565b6000602082019050919050565b600082825260208201905092915050565b600082825260208201905092915050565b600082825260208201905092915050565b600081905092915050565b600082825260208201905092915050565b600081905092915050565b6000614f35826150bb565b9150614f40836150bb565b9250827fffffffffffffffffffffffffffffffffffffffffffffffffffffffffffffffff03821115614f7557614f746151e4565b5b828201905092915050565b6000614f8b826150bb565b9150614f96836150bb565b925082614fa657614fa5615213565b5b828204905092915050565b6000614fbc826150bb565b9150614fc7836150bb565b9250817fffffffffffffffffffffffffffffffffffffffffffffffffffffffffffffffff048311821515161561500057614fff6151e4565b5b828202905092915050565b6000615016826150bb565b9150615021836150bb565b925082821015615034576150336151e4565b5b828203905092915050565b600061504a8261509b565b9050919050565b600061505c8261509b565b9050919050565b60008115159050919050565b60007fffffffff0000000000000000000000000000000000000000000000000000000082169050919050565b600073ffffffffffffffffffffffffffffffffffffffff82169050919050565b6000819050919050565b82818337600083830152505050565b60005b838110156150f25780820151818401526020810190506150d7565b83811115615101576000848401525b50505050565b6000600282049050600182168061511f57607f821691505b6020821081141561513357615132615242565b5b50919050565b6151428261531c565b810181811067ffffffffffffffff82111715615161576151606152cf565b5b80604052505050565b6000615175826150bb565b91507fffffffffffffffffffffffffffffffffffffffffffffffffffffffffffffffff8214156151a8576151a76151e4565b5b600182019050919050565b60006151be826150bb565b91506151c9836150bb565b9250826151d9576151d8615213565b5b828206905092915050565b7f4e487b7100000000000000000000000000000000000000000000000000000000600052601160045260246000fd5b7f4e487b7100000000000000000000000000000000000000000000000000000000600052601260045260246000fd5b7f4e487b7100000000000000000000000000000000000000000000000000000000600052602260045260246000fd5b7f4e487b7100000000000000000000000000000000000000000000000000000000600052603160045260246000fd5b7f4e487b7100000000000000000000000000000000000000000000000000000000600052603260045260246000fd5b7f4e487b7100000000000000000000000000000000000000000000000000000000600052604160045260246000fd5b600080fd5b600080fd5b600080fd5b600080fd5b600080fd5b600080fd5b6000601f19601f8301169050919050565b7f455243373231456e756d657261626c653a206f776e657220696e646578206f7560008201527f74206f6620626f756e6473000000000000000000000000000000000000000000602082015250565b7f4552433732313a207472616e7366657220746f206e6f6e20455243373231526560008201527f63656976657220696d706c656d656e7465720000000000000000000000000000602082015250565b7f4f776e61626c653a206e6577206f776e657220697320746865207a65726f206160008201527f6464726573730000000000000000000000000000000000000000000000000000602082015250565b7f4552433732313a20746f6b656e20616c7265616479206d696e74656400000000600082015250565b7f6d6178204e465420706572206164647265737320657863656564656400000000600082015250565b7f4552433732313a207472616e7366657220746f20746865207a65726f2061646460008201527f7265737300000000000000000000000000000000000000000000000000000000602082015250565b7f4552433732313a20617070726f766520746f2063616c6c657200000000000000600082015250565b7f4552433732313a206f70657261746f7220717565727920666f72206e6f6e657860008201527f697374656e7420746f6b656e0000000000000000000000000000000000000000602082015250565b7f4552433732313a20617070726f76652063616c6c6572206973206e6f74206f7760008201527f6e6572206e6f7220617070726f76656420666f7220616c6c0000000000000000602082015250565b7f4552433732313a2062616c616e636520717565727920666f7220746865207a6560008201527f726f206164647265737300000000000000000000000000000000000000000000602082015250565b7f4552433732313a206f776e657220717565727920666f72206e6f6e657869737460008201527f656e7420746f6b656e0000000000000000000000000000000000000000000000602082015250565b7f6d6178204e4654206c696d697420657863656564656400000000000000000000600082015250565b7f6d6178206d696e7420616d6f756e74207065722073657373696f6e206578636560008201527f6564656400000000000000000000000000000000000000000000000000000000602082015250565b7f4552433732313a206d696e7420746f20746865207a65726f2061646472657373600082015250565b7f4552433732313a20617070726f76656420717565727920666f72206e6f6e657860008201527f697374656e7420746f6b656e0000000000000000000000000000000000000000602082015250565b7f4f776e61626c653a2063616c6c6572206973206e6f7420746865206f776e6572600082015250565b7f74686520636f6e74726163742069732070617573656400000000000000000000600082015250565b7f4552433732313a207472616e73666572206f6620746f6b656e2074686174206960008201527f73206e6f74206f776e0000000000000000000000000000000000000000000000602082015250565b7f4552433732314d657461646174613a2055524920717565727920666f72206e6f60008201527f6e6578697374656e7420746f6b656e0000000000000000000000000000000000602082015250565b7f4552433732313a20617070726f76616c20746f2063757272656e74206f776e6560008201527f7200000000000000000000000000000000000000000000000000000000000000602082015250565b50565b7f696e73756666696369656e742066756e64730000000000000000000000000000600082015250565b7f4552433732313a207472616e736665722063616c6c6572206973206e6f74206f60008201527f776e6572206e6f7220617070726f766564000000000000000000000000000000602082015250565b7f455243373231456e756d657261626c653a20676c6f62616c20696e646578206f60008201527f7574206f6620626f756e64730000000000000000000000000000000000000000602082015250565b7f75736572206973206e6f742077686974656c6973746564000000000000000000600082015250565b7f6e65656420746f206d696e74206174206c656173742031204e46540000000000600082015250565b6159748161503f565b811461597f57600080fd5b50565b61598b81615063565b811461599657600080fd5b50565b6159a28161506f565b81146159ad57600080fd5b50565b6159b9816150bb565b81146159c457600080fd5b5056fea2646970667358221220a08ab38bdacded12afa6ca645161217481ffbec0aee774a1af68c639880082ec64736f6c63430008060033",
  "linkReferences": {},
  "deployedLinkReferences": {}
}