{
  "_format": "hh-sol-artifact-1",
  "contractName": "NFBeez",
  "sourceName": "contracts/NFBeez.sol",
  "abi": [
    {
      "inputs": [
        {
          "internalType": "string",
          "name": "_name",
          "type": "string"
        },
        {
          "internalType": "string",
          "name": "_symbol",
          "type": "string"
        },
        {
          "internalType": "string",
          "name": "_initBaseURI",
          "type": "string"
        },
        {
          "internalType": "string",
          "name": "_initNotRevealedUri",
          "type": "string"
        }
      ],
      "stateMutability": "payable",
      "type": "constructor"
    },
    {
      "anonymous": false,
      "inputs": [
        {
          "indexed": true,
          "internalType": "address",
          "name": "owner",
          "type": "address"
        },
        {
          "indexed": true,
          "internalType": "address",
          "name": "approved",
          "type": "address"
        },
        {
          "indexed": true,
          "internalType": "uint256",
          "name": "tokenId",
          "type": "uint256"
        }
      ],
      "name": "Approval",
      "type": "event"
    },
    {
      "anonymous": false,
      "inputs": [
        {
          "indexed": true,
          "internalType": "address",
          "name": "owner",
          "type": "address"
        },
        {
          "indexed": true,
          "internalType": "address",
          "name": "operator",
          "type": "address"
        },
        {
          "indexed": false,
          "internalType": "bool",
          "name": "approved",
          "type": "bool"
        }
      ],
      "name": "ApprovalForAll",
      "type": "event"
    },
    {
      "anonymous": false,
      "inputs": [
        {
          "indexed": false,
          "internalType": "address",
          "name": "sender",
          "type": "address"
        },
        {
          "indexed": false,
          "internalType": "uint256",
          "name": "mintAmount",
          "type": "uint256"
        }
      ],
      "name": "MintedNFT",
      "type": "event"
    },
    {
      "anonymous": false,
      "inputs": [
        {
          "indexed": true,
          "internalType": "address",
          "name": "previousOwner",
          "type": "address"
        },
        {
          "indexed": true,
          "internalType": "address",
          "name": "newOwner",
          "type": "address"
        }
      ],
      "name": "OwnershipTransferred",
      "type": "event"
    },
    {
      "anonymous": false,
      "inputs": [
        {
          "indexed": true,
          "internalType": "address",
          "name": "from",
          "type": "address"
        },
        {
          "indexed": true,
          "internalType": "address",
          "name": "to",
          "type": "address"
        },
        {
          "indexed": true,
          "internalType": "uint256",
          "name": "tokenId",
          "type": "uint256"
        }
      ],
      "name": "Transfer",
      "type": "event"
    },
    {
      "anonymous": false,
      "inputs": [
        {
          "indexed": false,
          "internalType": "address",
          "name": "sender",
          "type": "address"
        },
        {
          "indexed": false,
          "internalType": "uint256",
          "name": "prize",
          "type": "uint256"
        }
      ],
      "name": "WinningMint",
      "type": "event"
    },
    {
      "inputs": [
        {
          "internalType": "address",
          "name": "",
          "type": "address"
        }
      ],
      "name": "addressMintedBalance",
      "outputs": [
        {
          "internalType": "uint256",
          "name": "",
          "type": "uint256"
        }
      ],
      "stateMutability": "view",
      "type": "function"
    },
    {
      "inputs": [
        {
          "internalType": "address",
          "name": "to",
          "type": "address"
        },
        {
          "internalType": "uint256",
          "name": "tokenId",
          "type": "uint256"
        }
      ],
      "name": "approve",
      "outputs": [],
      "stateMutability": "nonpayable",
      "type": "function"
    },
    {
      "inputs": [
        {
          "internalType": "address",
          "name": "owner",
          "type": "address"
        }
      ],
      "name": "balanceOf",
      "outputs": [
        {
          "internalType": "uint256",
          "name": "",
          "type": "uint256"
        }
      ],
      "stateMutability": "view",
      "type": "function"
    },
    {
      "inputs": [],
      "name": "baseExtension",
      "outputs": [
        {
          "internalType": "string",
          "name": "",
          "type": "string"
        }
      ],
      "stateMutability": "view",
      "type": "function"
    },
    {
      "inputs": [],
      "name": "baseURI",
      "outputs": [
        {
          "internalType": "string",
          "name": "",
          "type": "string"
        }
      ],
      "stateMutability": "view",
      "type": "function"
    },
    {
      "inputs": [],
      "name": "cost",
      "outputs": [
        {
          "internalType": "uint256",
          "name": "",
          "type": "uint256"
        }
      ],
      "stateMutability": "view",
      "type": "function"
    },
    {
      "inputs": [
        {
          "internalType": "uint256",
          "name": "tokenId",
          "type": "uint256"
        }
      ],
      "name": "getApproved",
      "outputs": [
        {
          "internalType": "address",
          "name": "",
          "type": "address"
        }
      ],
      "stateMutability": "view",
      "type": "function"
    },
    {
      "inputs": [
        {
          "internalType": "address",
          "name": "owner",
          "type": "address"
        },
        {
          "internalType": "address",
          "name": "operator",
          "type": "address"
        }
      ],
      "name": "isApprovedForAll",
      "outputs": [
        {
          "internalType": "bool",
          "name": "",
          "type": "bool"
        }
      ],
      "stateMutability": "view",
      "type": "function"
    },
    {
      "inputs": [
        {
          "internalType": "address",
          "name": "_user",
          "type": "address"
        }
      ],
      "name": "isWhitelisted",
      "outputs": [
        {
          "internalType": "bool",
          "name": "",
          "type": "bool"
        }
      ],
      "stateMutability": "view",
      "type": "function"
    },
    {
      "inputs": [],
      "name": "maxMintAmount",
      "outputs": [
        {
          "internalType": "uint256",
          "name": "",
          "type": "uint256"
        }
      ],
      "stateMutability": "view",
      "type": "function"
    },
    {
      "inputs": [],
      "name": "maxSupply",
      "outputs": [
        {
          "internalType": "uint256",
          "name": "",
          "type": "uint256"
        }
      ],
      "stateMutability": "view",
      "type": "function"
    },
    {
      "inputs": [
        {
          "internalType": "uint256",
          "name": "_mintAmount",
          "type": "uint256"
        }
      ],
      "name": "mint",
      "outputs": [],
      "stateMutability": "payable",
      "type": "function"
    },
    {
      "inputs": [],
      "name": "name",
      "outputs": [
        {
          "internalType": "string",
          "name": "",
          "type": "string"
        }
      ],
      "stateMutability": "view",
      "type": "function"
    },
    {
      "inputs": [],
      "name": "nftPerAddressLimit",
      "outputs": [
        {
          "internalType": "uint256",
          "name": "",
          "type": "uint256"
        }
      ],
      "stateMutability": "view",
      "type": "function"
    },
    {
      "inputs": [],
      "name": "notRevealedUri",
      "outputs": [
        {
          "internalType": "string",
          "name": "",
          "type": "string"
        }
      ],
      "stateMutability": "view",
      "type": "function"
    },
    {
      "inputs": [],
      "name": "onlyWhitelisted",
      "outputs": [
        {
          "internalType": "bool",
          "name": "",
          "type": "bool"
        }
      ],
      "stateMutability": "view",
      "type": "function"
    },
    {
      "inputs": [],
      "name": "owner",
      "outputs": [
        {
          "internalType": "address",
          "name": "",
          "type": "address"
        }
      ],
      "stateMutability": "view",
      "type": "function"
    },
    {
      "inputs": [
        {
          "internalType": "uint256",
          "name": "tokenId",
          "type": "uint256"
        }
      ],
      "name": "ownerOf",
      "outputs": [
        {
          "internalType": "address",
          "name": "",
          "type": "address"
        }
      ],
      "stateMutability": "view",
      "type": "function"
    },
    {
      "inputs": [
        {
          "internalType": "bool",
          "name": "_state",
          "type": "bool"
        }
      ],
      "name": "pause",
      "outputs": [],
      "stateMutability": "nonpayable",
      "type": "function"
    },
    {
      "inputs": [],
      "name": "paused",
      "outputs": [
        {
          "internalType": "bool",
          "name": "",
          "type": "bool"
        }
      ],
      "stateMutability": "view",
      "type": "function"
    },
    {
      "inputs": [],
      "name": "renounceOwnership",
      "outputs": [],
      "stateMutability": "nonpayable",
      "type": "function"
    },
    {
      "inputs": [],
      "name": "reveal",
      "outputs": [],
      "stateMutability": "nonpayable",
      "type": "function"
    },
    {
      "inputs": [],
      "name": "revealed",
      "outputs": [
        {
          "internalType": "bool",
          "name": "",
          "type": "bool"
        }
      ],
      "stateMutability": "view",
      "type": "function"
    },
    {
      "inputs": [
        {
          "internalType": "address",
          "name": "from",
          "type": "address"
        },
        {
          "internalType": "address",
          "name": "to",
          "type": "address"
        },
        {
          "internalType": "uint256",
          "name": "tokenId",
          "type": "uint256"
        }
      ],
      "name": "safeTransferFrom",
      "outputs": [],
      "stateMutability": "nonpayable",
      "type": "function"
    },
    {
      "inputs": [
        {
          "internalType": "address",
          "name": "from",
          "type": "address"
        },
        {
          "internalType": "address",
          "name": "to",
          "type": "address"
        },
        {
          "internalType": "uint256",
          "name": "tokenId",
          "type": "uint256"
        },
        {
          "internalType": "bytes",
          "name": "_data",
          "type": "bytes"
        }
      ],
      "name": "safeTransferFrom",
      "outputs": [],
      "stateMutability": "nonpayable",
      "type": "function"
    },
    {
      "inputs": [
        {
          "internalType": "address",
          "name": "operator",
          "type": "address"
        },
        {
          "internalType": "bool",
          "name": "approved",
          "type": "bool"
        }
      ],
      "name": "setApprovalForAll",
      "outputs": [],
      "stateMutability": "nonpayable",
      "type": "function"
    },
    {
      "inputs": [
        {
          "internalType": "string",
          "name": "_newBaseExtension",
          "type": "string"
        }
      ],
      "name": "setBaseExtension",
      "outputs": [],
      "stateMutability": "nonpayable",
      "type": "function"
    },
    {
      "inputs": [
        {
          "internalType": "string",
          "name": "_newBaseURI",
          "type": "string"
        }
      ],
      "name": "setBaseURI",
      "outputs": [],
      "stateMutability": "nonpayable",
      "type": "function"
    },
    {
      "inputs": [
        {
          "internalType": "uint256",
          "name": "_newCost",
          "type": "uint256"
        }
      ],
      "name": "setCost",
      "outputs": [],
      "stateMutability": "nonpayable",
      "type": "function"
    },
    {
      "inputs": [
        {
          "internalType": "uint256",
          "name": "_limit",
          "type": "uint256"
        }
      ],
      "name": "setNftPerAddressLimit",
      "outputs": [],
      "stateMutability": "nonpayable",
      "type": "function"
    },
    {
      "inputs": [
        {
          "internalType": "string",
          "name": "_notRevealedURI",
          "type": "string"
        }
      ],
      "name": "setNotRevealedURI",
      "outputs": [],
      "stateMutability": "nonpayable",
      "type": "function"
    },
    {
      "inputs": [
        {
          "internalType": "bool",
          "name": "_state",
          "type": "bool"
        }
      ],
      "name": "setOnlyWhitelisted",
      "outputs": [],
      "stateMutability": "nonpayable",
      "type": "function"
    },
    {
      "inputs": [
        {
          "internalType": "uint256",
          "name": "_newRate",
          "type": "uint256"
        }
      ],
      "name": "setWinRate",
      "outputs": [],
      "stateMutability": "nonpayable",
      "type": "function"
    },
    {
      "inputs": [
        {
          "internalType": "uint256",
          "name": "_newmaxMintAmount",
          "type": "uint256"
        }
      ],
      "name": "setmaxMintAmount",
      "outputs": [],
      "stateMutability": "nonpayable",
      "type": "function"
    },
    {
      "inputs": [
        {
          "internalType": "bytes4",
          "name": "interfaceId",
          "type": "bytes4"
        }
      ],
      "name": "supportsInterface",
      "outputs": [
        {
          "internalType": "bool",
          "name": "",
          "type": "bool"
        }
      ],
      "stateMutability": "view",
      "type": "function"
    },
    {
      "inputs": [],
      "name": "symbol",
      "outputs": [
        {
          "internalType": "string",
          "name": "",
          "type": "string"
        }
      ],
      "stateMutability": "view",
      "type": "function"
    },
    {
      "inputs": [
        {
          "internalType": "uint256",
          "name": "index",
          "type": "uint256"
        }
      ],
      "name": "tokenByIndex",
      "outputs": [
        {
          "internalType": "uint256",
          "name": "",
          "type": "uint256"
        }
      ],
      "stateMutability": "view",
      "type": "function"
    },
    {
      "inputs": [
        {
          "internalType": "address",
          "name": "owner",
          "type": "address"
        },
        {
          "internalType": "uint256",
          "name": "index",
          "type": "uint256"
        }
      ],
      "name": "tokenOfOwnerByIndex",
      "outputs": [
        {
          "internalType": "uint256",
          "name": "",
          "type": "uint256"
        }
      ],
      "stateMutability": "view",
      "type": "function"
    },
    {
      "inputs": [
        {
          "internalType": "uint256",
          "name": "tokenId",
          "type": "uint256"
        }
      ],
      "name": "tokenURI",
      "outputs": [
        {
          "internalType": "string",
          "name": "",
          "type": "string"
        }
      ],
      "stateMutability": "view",
      "type": "function"
    },
    {
      "inputs": [],
      "name": "totalSupply",
      "outputs": [
        {
          "internalType": "uint256",
          "name": "",
          "type": "uint256"
        }
      ],
      "stateMutability": "view",
      "type": "function"
    },
    {
      "inputs": [
        {
          "internalType": "address",
          "name": "from",
          "type": "address"
        },
        {
          "internalType": "address",
          "name": "to",
          "type": "address"
        },
        {
          "internalType": "uint256",
          "name": "tokenId",
          "type": "uint256"
        }
      ],
      "name": "transferFrom",
      "outputs": [],
      "stateMutability": "nonpayable",
      "type": "function"
    },
    {
      "inputs": [
        {
          "internalType": "address",
          "name": "newOwner",
          "type": "address"
        }
      ],
      "name": "transferOwnership",
      "outputs": [],
      "stateMutability": "nonpayable",
      "type": "function"
    },
    {
      "inputs": [
        {
          "internalType": "address",
          "name": "_owner",
          "type": "address"
        }
      ],
      "name": "walletOfOwner",
      "outputs": [
        {
          "internalType": "uint256[]",
          "name": "",
          "type": "uint256[]"
        }
      ],
      "stateMutability": "view",
      "type": "function"
    },
    {
      "inputs": [
        {
          "internalType": "address[]",
          "name": "_users",
          "type": "address[]"
        }
      ],
      "name": "whitelistUsers",
      "outputs": [],
      "stateMutability": "nonpayable",
      "type": "function"
    },
    {
      "inputs": [
        {
          "internalType": "uint256",
          "name": "",
          "type": "uint256"
        }
      ],
      "name": "whitelistedAddresses",
      "outputs": [
        {
          "internalType": "address",
          "name": "",
          "type": "address"
        }
      ],
      "stateMutability": "view",
      "type": "function"
    },
    {
      "inputs": [],
      "name": "winRate",
      "outputs": [
        {
          "internalType": "uint256",
          "name": "",
          "type": "uint256"
        }
      ],
      "stateMutability": "view",
      "type": "function"
    },
    {
      "inputs": [],
      "name": "withdraw",
      "outputs": [],
      "stateMutability": "payable",
      "type": "function"
    }
  ],
  "bytecode": "0x60806040526040518060400160405280600581526020017f2e6a736f6e000000000000000000000000000000000000000000000000000000815250600c908051906020019062000051929190620003b9565b5067016345785d8a0000600e556005600f5561012c601055600a60115560286012556000601460006101000a81548160ff0219169083151502179055506000601460016101000a81548160ff0219169083151502179055506001601460026101000a81548160ff02191690831515021790555060405162005dd138038062005dd18339818101604052810190620000e99190620004db565b8383816000908051906020019062000103929190620003b9565b5080600190805190602001906200011c929190620003b9565b5050506200013f620001336200016b60201b60201c565b6200017360201b60201c565b62000150826200023960201b60201c565b6200016181620002e460201b60201c565b505050506200079e565b600033905090565b6000600a60009054906101000a900473ffffffffffffffffffffffffffffffffffffffff16905081600a60006101000a81548173ffffffffffffffffffffffffffffffffffffffff021916908373ffffffffffffffffffffffffffffffffffffffff1602179055508173ffffffffffffffffffffffffffffffffffffffff168173ffffffffffffffffffffffffffffffffffffffff167f8be0079c531659141344cd1fd0a4f28419497f9722a3daafe3b4186f6b6457e060405160405180910390a35050565b620002496200016b60201b60201c565b73ffffffffffffffffffffffffffffffffffffffff166200026f6200038f60201b60201c565b73ffffffffffffffffffffffffffffffffffffffff1614620002c8576040517f08c379a0000000000000000000000000000000000000000000000000000000008152600401620002bf90620005d2565b60405180910390fd5b80600b9080519060200190620002e0929190620003b9565b5050565b620002f46200016b60201b60201c565b73ffffffffffffffffffffffffffffffffffffffff166200031a6200038f60201b60201c565b73ffffffffffffffffffffffffffffffffffffffff161462000373576040517f08c379a00000000000000000000000000000000000000000000000000000000081526004016200036a90620005d2565b60405180910390fd5b80600d90805190602001906200038b929190620003b9565b5050565b6000600a60009054906101000a900473ffffffffffffffffffffffffffffffffffffffff16905090565b828054620003c7906200069a565b90600052602060002090601f016020900481019282620003eb576000855562000437565b82601f106200040657805160ff191683800117855562000437565b8280016001018555821562000437579182015b828111156200043657825182559160200191906001019062000419565b5b5090506200044691906200044a565b5090565b5b80821115620004655760008160009055506001016200044b565b5090565b6000620004806200047a846200061d565b620005f4565b9050828152602081018484840111156200049957600080fd5b620004a684828562000664565b509392505050565b600082601f830112620004c057600080fd5b8151620004d284826020860162000469565b91505092915050565b60008060008060808587031215620004f257600080fd5b600085015167ffffffffffffffff8111156200050d57600080fd5b6200051b87828801620004ae565b945050602085015167ffffffffffffffff8111156200053957600080fd5b6200054787828801620004ae565b935050604085015167ffffffffffffffff8111156200056557600080fd5b6200057387828801620004ae565b925050606085015167ffffffffffffffff8111156200059157600080fd5b6200059f87828801620004ae565b91505092959194509250565b6000620005ba60208362000653565b9150620005c78262000775565b602082019050919050565b60006020820190508181036000830152620005ed81620005ab565b9050919050565b60006200060062000613565b90506200060e8282620006d0565b919050565b6000604051905090565b600067ffffffffffffffff8211156200063b576200063a62000735565b5b620006468262000764565b9050602081019050919050565b600082825260208201905092915050565b60005b838110156200068457808201518184015260208101905062000667565b8381111562000694576000848401525b50505050565b60006002820490506001821680620006b357607f821691505b60208210811415620006ca57620006c962000706565b5b50919050565b620006db8262000764565b810181811067ffffffffffffffff82111715620006fd57620006fc62000735565b5b80604052505050565b7f4e487b7100000000000000000000000000000000000000000000000000000000600052602260045260246000fd5b7f4e487b7100000000000000000000000000000000000000000000000000000000600052604160045260246000fd5b6000601f19601f8301169050919050565b7f4f776e61626c653a2063616c6c6572206973206e6f7420746865206f776e6572600082015250565b61562380620007ae6000396000f3fe6080604052600436106102885760003560e01c80636c0360eb1161015a578063ba7d2c76116100c1578063da3ef23f1161007a578063da3ef23f146109c6578063e58bc3f0146109ef578063e985e9c514610a1a578063edec5f2714610a57578063f2c4ce1e14610a80578063f2fde38b14610aa957610288565b8063ba7d2c76146108b6578063c6682862146108e1578063c87b56dd1461090c578063d0eb26b014610949578063d2c0109d14610972578063d5abeb011461099b57610288565b80639c70b512116101135780639c70b512146107c9578063a0712d68146107f4578063a22cb46514610810578063a475b5dd14610839578063b88d4fde14610850578063ba4e5c491461087957610288565b80636c0360eb146106cb57806370a08231146106f6578063715018a6146107335780637f00c7a61461074a5780638da5cb5b1461077357806395d89b411461079e57610288565b80632f745c59116101fe57806344a0d68a116101b757806344a0d68a146105a95780634f6ccce7146105d2578063518302271461060f57806355f804b31461063a5780635c975abb146106635780636352211e1461068e57610288565b80632f745c59146104965780633af32abf146104d35780633c952764146105105780633ccfd60b1461053957806342842e0e14610543578063438b63001461056c57610288565b8063095ea7b311610250578063095ea7b31461038657806313faede6146103af57806318160ddd146103da57806318cae26914610405578063239c70ae1461044257806323b872dd1461046d57610288565b806301ffc9a71461028d57806302329a29146102ca57806306fdde03146102f3578063081812fc1461031e578063081c8c441461035b575b600080fd5b34801561029957600080fd5b506102b460048036038101906102af9190613ed9565b610ad2565b6040516102c19190614635565b60405180910390f35b3480156102d657600080fd5b506102f160048036038101906102ec9190613eb0565b610b4c565b005b3480156102ff57600080fd5b50610308610be5565b6040516103159190614650565b60405180910390f35b34801561032a57600080fd5b5061034560048036038101906103409190613f6c565b610c77565b6040516103529190614583565b60405180910390f35b34801561036757600080fd5b50610370610cfc565b60405161037d9190614650565b60405180910390f35b34801561039257600080fd5b506103ad60048036038101906103a89190613e2f565b610d8a565b005b3480156103bb57600080fd5b506103c4610ea2565b6040516103d19190614a02565b60405180910390f35b3480156103e657600080fd5b506103ef610ea8565b6040516103fc9190614a02565b60405180910390f35b34801561041157600080fd5b5061042c60048036038101906104279190613cc4565b610eb5565b6040516104399190614a02565b60405180910390f35b34801561044e57600080fd5b50610457610ecd565b6040516104649190614a02565b60405180910390f35b34801561047957600080fd5b50610494600480360381019061048f9190613d29565b610ed3565b005b3480156104a257600080fd5b506104bd60048036038101906104b89190613e2f565b610f33565b6040516104ca9190614a02565b60405180910390f35b3480156104df57600080fd5b506104fa60048036038101906104f59190613cc4565b610fd8565b6040516105079190614635565b60405180910390f35b34801561051c57600080fd5b5061053760048036038101906105329190613eb0565b6110ad565b005b610541611146565b005b34801561054f57600080fd5b5061056a60048036038101906105659190613d29565b61123b565b005b34801561057857600080fd5b50610593600480360381019061058e9190613cc4565b61125b565b6040516105a09190614613565b60405180910390f35b3480156105b557600080fd5b506105d060048036038101906105cb9190613f6c565b611355565b005b3480156105de57600080fd5b506105f960048036038101906105f49190613f6c565b6113db565b6040516106069190614a02565b60405180910390f35b34801561061b57600080fd5b50610624611472565b6040516106319190614635565b60405180910390f35b34801561064657600080fd5b50610661600480360381019061065c9190613f2b565b611485565b005b34801561066f57600080fd5b5061067861151b565b6040516106859190614635565b60405180910390f35b34801561069a57600080fd5b506106b560048036038101906106b09190613f6c565b61152e565b6040516106c29190614583565b60405180910390f35b3480156106d757600080fd5b506106e06115e0565b6040516106ed9190614650565b60405180910390f35b34801561070257600080fd5b5061071d60048036038101906107189190613cc4565b61166e565b60405161072a9190614a02565b60405180910390f35b34801561073f57600080fd5b50610748611726565b005b34801561075657600080fd5b50610771600480360381019061076c9190613f6c565b6117ae565b005b34801561077f57600080fd5b50610788611834565b6040516107959190614583565b60405180910390f35b3480156107aa57600080fd5b506107b361185e565b6040516107c09190614650565b60405180910390f35b3480156107d557600080fd5b506107de6118f0565b6040516107eb9190614635565b60405180910390f35b61080e60048036038101906108099190613f6c565b611903565b005b34801561081c57600080fd5b5061083760048036038101906108329190613df3565b611e6a565b005b34801561084557600080fd5b5061084e611feb565b005b34801561085c57600080fd5b5061087760048036038101906108729190613d78565b612084565b005b34801561088557600080fd5b506108a0600480360381019061089b9190613f6c565b6120e6565b6040516108ad9190614583565b60405180910390f35b3480156108c257600080fd5b506108cb612125565b6040516108d89190614a02565b60405180910390f35b3480156108ed57600080fd5b506108f661212b565b6040516109039190614650565b60405180910390f35b34801561091857600080fd5b50610933600480360381019061092e9190613f6c565b6121b9565b6040516109409190614650565b60405180910390f35b34801561095557600080fd5b50610970600480360381019061096b9190613f6c565b612312565b005b34801561097e57600080fd5b5061099960048036038101906109949190613f6c565b612398565b005b3480156109a757600080fd5b506109b061241e565b6040516109bd9190614a02565b60405180910390f35b3480156109d257600080fd5b506109ed60048036038101906109e89190613f2b565b612424565b005b3480156109fb57600080fd5b50610a046124ba565b604051610a119190614a02565b60405180910390f35b348015610a2657600080fd5b50610a416004803603810190610a3c9190613ced565b6124c0565b604051610a4e9190614635565b60405180910390f35b348015610a6357600080fd5b50610a7e6004803603810190610a799190613e6b565b612554565b005b348015610a8c57600080fd5b50610aa76004803603810190610aa29190613f2b565b6125f4565b005b348015610ab557600080fd5b50610ad06004803603810190610acb9190613cc4565b61268a565b005b60007f780e9d63000000000000000000000000000000000000000000000000000000007bffffffffffffffffffffffffffffffffffffffffffffffffffffffff1916827bffffffffffffffffffffffffffffffffffffffffffffffffffffffff19161480610b455750610b4482612782565b5b9050919050565b610b54612864565b73ffffffffffffffffffffffffffffffffffffffff16610b72611834565b73ffffffffffffffffffffffffffffffffffffffff1614610bc8576040517f08c379a0000000000000000000000000000000000000000000000000000000008152600401610bbf906148a2565b60405180910390fd5b80601460006101000a81548160ff02191690831515021790555050565b606060008054610bf490614d0b565b80601f0160208091040260200160405190810160405280929190818152602001828054610c2090614d0b565b8015610c6d5780601f10610c4257610100808354040283529160200191610c6d565b820191906000526020600020905b815481529060010190602001808311610c5057829003601f168201915b5050505050905090565b6000610c828261286c565b610cc1576040517f08c379a0000000000000000000000000000000000000000000000000000000008152600401610cb890614882565b60405180910390fd5b6004600083815260200190815260200160002060009054906101000a900473ffffffffffffffffffffffffffffffffffffffff169050919050565b600d8054610d0990614d0b565b80601f0160208091040260200160405190810160405280929190818152602001828054610d3590614d0b565b8015610d825780601f10610d5757610100808354040283529160200191610d82565b820191906000526020600020905b815481529060010190602001808311610d6557829003601f168201915b505050505081565b6000610d958261152e565b90508073ffffffffffffffffffffffffffffffffffffffff168373ffffffffffffffffffffffffffffffffffffffff161415610e06576040517f08c379a0000000000000000000000000000000000000000000000000000000008152600401610dfd90614922565b60405180910390fd5b8073ffffffffffffffffffffffffffffffffffffffff16610e25612864565b73ffffffffffffffffffffffffffffffffffffffff161480610e545750610e5381610e4e612864565b6124c0565b5b610e93576040517f08c379a0000000000000000000000000000000000000000000000000000000008152600401610e8a906147c2565b60405180910390fd5b610e9d83836128d8565b505050565b600e5481565b6000600880549050905090565b60166020528060005260406000206000915090505481565b60115481565b610ee4610ede612864565b82612991565b610f23576040517f08c379a0000000000000000000000000000000000000000000000000000000008152600401610f1a90614982565b60405180910390fd5b610f2e838383612a6f565b505050565b6000610f3e8361166e565b8210610f7f576040517f08c379a0000000000000000000000000000000000000000000000000000000008152600401610f76906146a2565b60405180910390fd5b600660008473ffffffffffffffffffffffffffffffffffffffff1673ffffffffffffffffffffffffffffffffffffffff168152602001908152602001600020600083815260200190815260200160002054905092915050565b600080600090505b6015805490508110156110a2578273ffffffffffffffffffffffffffffffffffffffff166015828154811061103e577f4e487b7100000000000000000000000000000000000000000000000000000000600052603260045260246000fd5b9060005260206000200160009054906101000a900473ffffffffffffffffffffffffffffffffffffffff1673ffffffffffffffffffffffffffffffffffffffff16141561108f5760019150506110a8565b808061109a90614d6e565b915050610fe0565b50600090505b919050565b6110b5612864565b73ffffffffffffffffffffffffffffffffffffffff166110d3611834565b73ffffffffffffffffffffffffffffffffffffffff1614611129576040517f08c379a0000000000000000000000000000000000000000000000000000000008152600401611120906148a2565b60405180910390fd5b80601460026101000a81548160ff02191690831515021790555050565b61114e612864565b73ffffffffffffffffffffffffffffffffffffffff1661116c611834565b73ffffffffffffffffffffffffffffffffffffffff16146111c2576040517f08c379a00000000000000000000000000000000000000000000000000000000081526004016111b9906148a2565b60405180910390fd5b60003373ffffffffffffffffffffffffffffffffffffffff16476040516111e89061456e565b60006040518083038185875af1925050503d8060008114611225576040519150601f19603f3d011682016040523d82523d6000602084013e61122a565b606091505b505090508061123857600080fd5b50565b61125683838360405180602001604052806000815250612084565b505050565b606060006112688361166e565b905060008167ffffffffffffffff8111156112ac577f4e487b7100000000000000000000000000000000000000000000000000000000600052604160045260246000fd5b6040519080825280602002602001820160405280156112da5781602001602082028036833780820191505090505b50905060005b8281101561134a576112f28582610f33565b82828151811061132b577f4e487b7100000000000000000000000000000000000000000000000000000000600052603260045260246000fd5b602002602001018181525050808061134290614d6e565b9150506112e0565b508092505050919050565b61135d612864565b73ffffffffffffffffffffffffffffffffffffffff1661137b611834565b73ffffffffffffffffffffffffffffffffffffffff16146113d1576040517f08c379a00000000000000000000000000000000000000000000000000000000081526004016113c8906148a2565b60405180910390fd5b80600e8190555050565b60006113e5610ea8565b8210611426576040517f08c379a000000000000000000000000000000000000000000000000000000000815260040161141d906149a2565b60405180910390fd5b60088281548110611460577f4e487b7100000000000000000000000000000000000000000000000000000000600052603260045260246000fd5b90600052602060002001549050919050565b601460019054906101000a900460ff1681565b61148d612864565b73ffffffffffffffffffffffffffffffffffffffff166114ab611834565b73ffffffffffffffffffffffffffffffffffffffff1614611501576040517f08c379a00000000000000000000000000000000000000000000000000000000081526004016114f8906148a2565b60405180910390fd5b80600b90805190602001906115179291906139dd565b5050565b601460009054906101000a900460ff1681565b6000806002600084815260200190815260200160002060009054906101000a900473ffffffffffffffffffffffffffffffffffffffff169050600073ffffffffffffffffffffffffffffffffffffffff168173ffffffffffffffffffffffffffffffffffffffff1614156115d7576040517f08c379a00000000000000000000000000000000000000000000000000000000081526004016115ce90614802565b60405180910390fd5b80915050919050565b600b80546115ed90614d0b565b80601f016020809104026020016040519081016040528092919081815260200182805461161990614d0b565b80156116665780601f1061163b57610100808354040283529160200191611666565b820191906000526020600020905b81548152906001019060200180831161164957829003601f168201915b505050505081565b60008073ffffffffffffffffffffffffffffffffffffffff168273ffffffffffffffffffffffffffffffffffffffff1614156116df576040517f08c379a00000000000000000000000000000000000000000000000000000000081526004016116d6906147e2565b60405180910390fd5b600360008373ffffffffffffffffffffffffffffffffffffffff1673ffffffffffffffffffffffffffffffffffffffff168152602001908152602001600020549050919050565b61172e612864565b73ffffffffffffffffffffffffffffffffffffffff1661174c611834565b73ffffffffffffffffffffffffffffffffffffffff16146117a2576040517f08c379a0000000000000000000000000000000000000000000000000000000008152600401611799906148a2565b60405180910390fd5b6117ac6000612ccb565b565b6117b6612864565b73ffffffffffffffffffffffffffffffffffffffff166117d4611834565b73ffffffffffffffffffffffffffffffffffffffff161461182a576040517f08c379a0000000000000000000000000000000000000000000000000000000008152600401611821906148a2565b60405180910390fd5b8060118190555050565b6000600a60009054906101000a900473ffffffffffffffffffffffffffffffffffffffff16905090565b60606001805461186d90614d0b565b80601f016020809104026020016040519081016040528092919081815260200182805461189990614d0b565b80156118e65780601f106118bb576101008083540402835291602001916118e6565b820191906000526020600020905b8154815290600101906020018083116118c957829003601f168201915b5050505050905090565b601460029054906101000a900460ff1681565b601460009054906101000a900460ff1615611953576040517f08c379a000000000000000000000000000000000000000000000000000000000815260040161194a906148c2565b60405180910390fd5b600061195d610ea8565b9050600082116119a2576040517f08c379a0000000000000000000000000000000000000000000000000000000008152600401611999906149e2565b60405180910390fd5b6011548211156119e7576040517f08c379a00000000000000000000000000000000000000000000000000000000081526004016119de90614842565b60405180910390fd5b60105482826119f69190614b40565b1115611a37576040517f08c379a0000000000000000000000000000000000000000000000000000000008152600401611a2e90614822565b60405180910390fd5b611a3f611834565b73ffffffffffffffffffffffffffffffffffffffff163373ffffffffffffffffffffffffffffffffffffffff1614611bbc5760011515601460029054906101000a900460ff1615151415611b6b57611a9633610fd8565b611ad5576040517f08c379a0000000000000000000000000000000000000000000000000000000008152600401611acc906149c2565b60405180910390fd5b6000601660003373ffffffffffffffffffffffffffffffffffffffff1673ffffffffffffffffffffffffffffffffffffffff1681526020019081526020016000205490506012548382611b289190614b40565b1115611b69576040517f08c379a0000000000000000000000000000000000000000000000000000000008152600401611b6090614722565b60405180910390fd5b505b81600e54611b799190614bc7565b341015611bbb576040517f08c379a0000000000000000000000000000000000000000000000000000000008152600401611bb290614962565b60405180910390fd5b5b6000600190505b828111611e2c57601660003373ffffffffffffffffffffffffffffffffffffffff1673ffffffffffffffffffffffffffffffffffffffff1681526020019081526020016000206000815480929190611c1a90614d6e565b9190505550611c34338284611c2f9190614b40565b612d91565b600060646013544244611c479190614b40565b611c519190614b40565b611c5b9190614db7565b905080601381905550611c6c611834565b73ffffffffffffffffffffffffffffffffffffffff163373ffffffffffffffffffffffffffffffffffffffff1614611e1857600f54811015611e1757611ce76040518060400160405280600781526020017f257320776f6e210000000000000000000000000000000000000000000000000081525033612daf565b47600e541115611d2c576040517f08c379a0000000000000000000000000000000000000000000000000000000008152600401611d2390614942565b60405180910390fd5b60003373ffffffffffffffffffffffffffffffffffffffff16600e54604051611d549061456e565b60006040518083038185875af1925050503d8060008114611d91576040519150601f19603f3d011682016040523d82523d6000602084013e611d96565b606091505b5050905080611dda576040517f08c379a0000000000000000000000000000000000000000000000000000000008152600401611dd190614782565b60405180910390fd5b7f2e008cac0ce8b90dd9e80248b5f8d05f95d5d25cc6787b754ba5dd09d12052d433600e54604051611e0d9291906145ea565b60405180910390a1505b5b508080611e2490614d6e565b915050611bc3565b507f7a5477f3d257e8974dc6fb5c008b442d975968577dfad5d1283aa0a488bfab0b3383604051611e5e9291906145ea565b60405180910390a15050565b611e72612864565b73ffffffffffffffffffffffffffffffffffffffff168273ffffffffffffffffffffffffffffffffffffffff161415611ee0576040517f08c379a0000000000000000000000000000000000000000000000000000000008152600401611ed790614762565b60405180910390fd5b8060056000611eed612864565b73ffffffffffffffffffffffffffffffffffffffff1673ffffffffffffffffffffffffffffffffffffffff16815260200190815260200160002060008473ffffffffffffffffffffffffffffffffffffffff1673ffffffffffffffffffffffffffffffffffffffff16815260200190815260200160002060006101000a81548160ff0219169083151502179055508173ffffffffffffffffffffffffffffffffffffffff16611f9a612864565b73ffffffffffffffffffffffffffffffffffffffff167f17307eab39ab6107e8899845ad3d59bd9653f200f220920489ca2b5937696c3183604051611fdf9190614635565b60405180910390a35050565b611ff3612864565b73ffffffffffffffffffffffffffffffffffffffff16612011611834565b73ffffffffffffffffffffffffffffffffffffffff1614612067576040517f08c379a000000000000000000000000000000000000000000000000000000000815260040161205e906148a2565b60405180910390fd5b6001601460016101000a81548160ff021916908315150217905550565b61209561208f612864565b83612991565b6120d4576040517f08c379a00000000000000000000000000000000000000000000000000000000081526004016120cb90614982565b60405180910390fd5b6120e084848484612e4b565b50505050565b601581815481106120f657600080fd5b906000526020600020016000915054906101000a900473ffffffffffffffffffffffffffffffffffffffff1681565b60125481565b600c805461213890614d0b565b80601f016020809104026020016040519081016040528092919081815260200182805461216490614d0b565b80156121b15780601f10612186576101008083540402835291602001916121b1565b820191906000526020600020905b81548152906001019060200180831161219457829003601f168201915b505050505081565b60606121c48261286c565b612203576040517f08c379a00000000000000000000000000000000000000000000000000000000081526004016121fa90614902565b60405180910390fd5b60001515601460019054906101000a900460ff16151514156122b157600d805461222c90614d0b565b80601f016020809104026020016040519081016040528092919081815260200182805461225890614d0b565b80156122a55780601f1061227a576101008083540402835291602001916122a5565b820191906000526020600020905b81548152906001019060200180831161228857829003601f168201915b5050505050905061230d565b60006122bb612ea7565b905060008151116122db5760405180602001604052806000815250612309565b806122e584612f39565b600c6040516020016122f99392919061453d565b6040516020818303038152906040525b9150505b919050565b61231a612864565b73ffffffffffffffffffffffffffffffffffffffff16612338611834565b73ffffffffffffffffffffffffffffffffffffffff161461238e576040517f08c379a0000000000000000000000000000000000000000000000000000000008152600401612385906148a2565b60405180910390fd5b8060128190555050565b6123a0612864565b73ffffffffffffffffffffffffffffffffffffffff166123be611834565b73ffffffffffffffffffffffffffffffffffffffff1614612414576040517f08c379a000000000000000000000000000000000000000000000000000000000815260040161240b906148a2565b60405180910390fd5b80600f8190555050565b60105481565b61242c612864565b73ffffffffffffffffffffffffffffffffffffffff1661244a611834565b73ffffffffffffffffffffffffffffffffffffffff16146124a0576040517f08c379a0000000000000000000000000000000000000000000000000000000008152600401612497906148a2565b60405180910390fd5b80600c90805190602001906124b69291906139dd565b5050565b600f5481565b6000600560008473ffffffffffffffffffffffffffffffffffffffff1673ffffffffffffffffffffffffffffffffffffffff16815260200190815260200160002060008373ffffffffffffffffffffffffffffffffffffffff1673ffffffffffffffffffffffffffffffffffffffff16815260200190815260200160002060009054906101000a900460ff16905092915050565b61255c612864565b73ffffffffffffffffffffffffffffffffffffffff1661257a611834565b73ffffffffffffffffffffffffffffffffffffffff16146125d0576040517f08c379a00000000000000000000000000000000000000000000000000000000081526004016125c7906148a2565b60405180910390fd5b601560006125de9190613a63565b8181601591906125ef929190613a84565b505050565b6125fc612864565b73ffffffffffffffffffffffffffffffffffffffff1661261a611834565b73ffffffffffffffffffffffffffffffffffffffff1614612670576040517f08c379a0000000000000000000000000000000000000000000000000000000008152600401612667906148a2565b60405180910390fd5b80600d90805190602001906126869291906139dd565b5050565b612692612864565b73ffffffffffffffffffffffffffffffffffffffff166126b0611834565b73ffffffffffffffffffffffffffffffffffffffff1614612706576040517f08c379a00000000000000000000000000000000000000000000000000000000081526004016126fd906148a2565b60405180910390fd5b600073ffffffffffffffffffffffffffffffffffffffff168173ffffffffffffffffffffffffffffffffffffffff161415612776576040517f08c379a000000000000000000000000000000000000000000000000000000000815260040161276d906146e2565b60405180910390fd5b61277f81612ccb565b50565b60007f80ac58cd000000000000000000000000000000000000000000000000000000007bffffffffffffffffffffffffffffffffffffffffffffffffffffffff1916827bffffffffffffffffffffffffffffffffffffffffffffffffffffffff1916148061284d57507f5b5e139f000000000000000000000000000000000000000000000000000000007bffffffffffffffffffffffffffffffffffffffffffffffffffffffff1916827bffffffffffffffffffffffffffffffffffffffffffffffffffffffff1916145b8061285d575061285c826130e6565b5b9050919050565b600033905090565b60008073ffffffffffffffffffffffffffffffffffffffff166002600084815260200190815260200160002060009054906101000a900473ffffffffffffffffffffffffffffffffffffffff1673ffffffffffffffffffffffffffffffffffffffff1614159050919050565b816004600083815260200190815260200160002060006101000a81548173ffffffffffffffffffffffffffffffffffffffff021916908373ffffffffffffffffffffffffffffffffffffffff160217905550808273ffffffffffffffffffffffffffffffffffffffff1661294b8361152e565b73ffffffffffffffffffffffffffffffffffffffff167f8c5be1e5ebec7d5bd14f71427d1e84f3dd0314c0f7b2291e5b200ac8c7c3b92560405160405180910390a45050565b600061299c8261286c565b6129db576040517f08c379a00000000000000000000000000000000000000000000000000000000081526004016129d2906147a2565b60405180910390fd5b60006129e68361152e565b90508073ffffffffffffffffffffffffffffffffffffffff168473ffffffffffffffffffffffffffffffffffffffff161480612a5557508373ffffffffffffffffffffffffffffffffffffffff16612a3d84610c77565b73ffffffffffffffffffffffffffffffffffffffff16145b80612a665750612a6581856124c0565b5b91505092915050565b8273ffffffffffffffffffffffffffffffffffffffff16612a8f8261152e565b73ffffffffffffffffffffffffffffffffffffffff1614612ae5576040517f08c379a0000000000000000000000000000000000000000000000000000000008152600401612adc906148e2565b60405180910390fd5b600073ffffffffffffffffffffffffffffffffffffffff168273ffffffffffffffffffffffffffffffffffffffff161415612b55576040517f08c379a0000000000000000000000000000000000000000000000000000000008152600401612b4c90614742565b60405180910390fd5b612b60838383613150565b612b6b6000826128d8565b6001600360008573ffffffffffffffffffffffffffffffffffffffff1673ffffffffffffffffffffffffffffffffffffffff1681526020019081526020016000206000828254612bbb9190614c21565b925050819055506001600360008473ffffffffffffffffffffffffffffffffffffffff1673ffffffffffffffffffffffffffffffffffffffff1681526020019081526020016000206000828254612c129190614b40565b92505081905550816002600083815260200190815260200160002060006101000a81548173ffffffffffffffffffffffffffffffffffffffff021916908373ffffffffffffffffffffffffffffffffffffffff160217905550808273ffffffffffffffffffffffffffffffffffffffff168473ffffffffffffffffffffffffffffffffffffffff167fddf252ad1be2c89b69c2b068fc378daa952ba7f163c4a11628f55a4df523b3ef60405160405180910390a4505050565b6000600a60009054906101000a900473ffffffffffffffffffffffffffffffffffffffff16905081600a60006101000a81548173ffffffffffffffffffffffffffffffffffffffff021916908373ffffffffffffffffffffffffffffffffffffffff1602179055508173ffffffffffffffffffffffffffffffffffffffff168173ffffffffffffffffffffffffffffffffffffffff167f8be0079c531659141344cd1fd0a4f28419497f9722a3daafe3b4186f6b6457e060405160405180910390a35050565b612dab828260405180602001604052806000815250613264565b5050565b612e478282604051602401612dc5929190614672565b6040516020818303038152906040527f319af333000000000000000000000000000000000000000000000000000000007bffffffffffffffffffffffffffffffffffffffffffffffffffffffff19166020820180517bffffffffffffffffffffffffffffffffffffffffffffffffffffffff83818316178352505050506132bf565b5050565b612e56848484612a6f565b612e62848484846132e8565b612ea1576040517f08c379a0000000000000000000000000000000000000000000000000000000008152600401612e98906146c2565b60405180910390fd5b50505050565b6060600b8054612eb690614d0b565b80601f0160208091040260200160405190810160405280929190818152602001828054612ee290614d0b565b8015612f2f5780601f10612f0457610100808354040283529160200191612f2f565b820191906000526020600020905b815481529060010190602001808311612f1257829003601f168201915b5050505050905090565b60606000821415612f81576040518060400160405280600181526020017f300000000000000000000000000000000000000000000000000000000000000081525090506130e1565b600082905060005b60008214612fb3578080612f9c90614d6e565b915050600a82612fac9190614b96565b9150612f89565b60008167ffffffffffffffff811115612ff5577f4e487b7100000000000000000000000000000000000000000000000000000000600052604160045260246000fd5b6040519080825280601f01601f1916602001820160405280156130275781602001600182028036833780820191505090505b5090505b600085146130da576001826130409190614c21565b9150600a8561304f9190614db7565b603061305b9190614b40565b60f81b818381518110613097577f4e487b7100000000000000000000000000000000000000000000000000000000600052603260045260246000fd5b60200101907effffffffffffffffffffffffffffffffffffffffffffffffffffffffffffff1916908160001a905350600a856130d39190614b96565b945061302b565b8093505050505b919050565b60007f01ffc9a7000000000000000000000000000000000000000000000000000000007bffffffffffffffffffffffffffffffffffffffffffffffffffffffff1916827bffffffffffffffffffffffffffffffffffffffffffffffffffffffff1916149050919050565b61315b83838361347f565b600073ffffffffffffffffffffffffffffffffffffffff168373ffffffffffffffffffffffffffffffffffffffff16141561319e5761319981613484565b6131dd565b8173ffffffffffffffffffffffffffffffffffffffff168373ffffffffffffffffffffffffffffffffffffffff16146131dc576131db83826134cd565b5b5b600073ffffffffffffffffffffffffffffffffffffffff168273ffffffffffffffffffffffffffffffffffffffff1614156132205761321b8161363a565b61325f565b8273ffffffffffffffffffffffffffffffffffffffff168273ffffffffffffffffffffffffffffffffffffffff161461325e5761325d828261377d565b5b5b505050565b61326e83836137fc565b61327b60008484846132e8565b6132ba576040517f08c379a00000000000000000000000000000000000000000000000000000000081526004016132b1906146c2565b60405180910390fd5b505050565b60008151905060006a636f6e736f6c652e6c6f679050602083016000808483855afa5050505050565b60006133098473ffffffffffffffffffffffffffffffffffffffff166139ca565b15613472578373ffffffffffffffffffffffffffffffffffffffff1663150b7a02613332612864565b8786866040518563ffffffff1660e01b8152600401613354949392919061459e565b602060405180830381600087803b15801561336e57600080fd5b505af192505050801561339f57506040513d601f19601f8201168201806040525081019061339c9190613f02565b60015b613422573d80600081146133cf576040519150601f19603f3d011682016040523d82523d6000602084013e6133d4565b606091505b5060008151141561341a576040517f08c379a0000000000000000000000000000000000000000000000000000000008152600401613411906146c2565b60405180910390fd5b805181602001fd5b63150b7a0260e01b7bffffffffffffffffffffffffffffffffffffffffffffffffffffffff1916817bffffffffffffffffffffffffffffffffffffffffffffffffffffffff191614915050613477565b600190505b949350505050565b505050565b6008805490506009600083815260200190815260200160002081905550600881908060018154018082558091505060019003906000526020600020016000909190919091505550565b600060016134da8461166e565b6134e49190614c21565b90506000600760008481526020019081526020016000205490508181146135c9576000600660008673ffffffffffffffffffffffffffffffffffffffff1673ffffffffffffffffffffffffffffffffffffffff168152602001908152602001600020600084815260200190815260200160002054905080600660008773ffffffffffffffffffffffffffffffffffffffff1673ffffffffffffffffffffffffffffffffffffffff168152602001908152602001600020600084815260200190815260200160002081905550816007600083815260200190815260200160002081905550505b6007600084815260200190815260200160002060009055600660008573ffffffffffffffffffffffffffffffffffffffff1673ffffffffffffffffffffffffffffffffffffffff16815260200190815260200160002060008381526020019081526020016000206000905550505050565b6000600160088054905061364e9190614c21565b90506000600960008481526020019081526020016000205490506000600883815481106136a4577f4e487b7100000000000000000000000000000000000000000000000000000000600052603260045260246000fd5b9060005260206000200154905080600883815481106136ec577f4e487b7100000000000000000000000000000000000000000000000000000000600052603260045260246000fd5b906000526020600020018190555081600960008381526020019081526020016000208190555060096000858152602001908152602001600020600090556008805480613761577f4e487b7100000000000000000000000000000000000000000000000000000000600052603160045260246000fd5b6001900381819060005260206000200160009055905550505050565b60006137888361166e565b905081600660008573ffffffffffffffffffffffffffffffffffffffff1673ffffffffffffffffffffffffffffffffffffffff168152602001908152602001600020600083815260200190815260200160002081905550806007600084815260200190815260200160002081905550505050565b600073ffffffffffffffffffffffffffffffffffffffff168273ffffffffffffffffffffffffffffffffffffffff16141561386c576040517f08c379a000000000000000000000000000000000000000000000000000000000815260040161386390614862565b60405180910390fd5b6138758161286c565b156138b5576040517f08c379a00000000000000000000000000000000000000000000000000000000081526004016138ac90614702565b60405180910390fd5b6138c160008383613150565b6001600360008473ffffffffffffffffffffffffffffffffffffffff1673ffffffffffffffffffffffffffffffffffffffff16815260200190815260200160002060008282546139119190614b40565b92505081905550816002600083815260200190815260200160002060006101000a81548173ffffffffffffffffffffffffffffffffffffffff021916908373ffffffffffffffffffffffffffffffffffffffff160217905550808273ffffffffffffffffffffffffffffffffffffffff16600073ffffffffffffffffffffffffffffffffffffffff167fddf252ad1be2c89b69c2b068fc378daa952ba7f163c4a11628f55a4df523b3ef60405160405180910390a45050565b600080823b905060008111915050919050565b8280546139e990614d0b565b90600052602060002090601f016020900481019282613a0b5760008555613a52565b82601f10613a2457805160ff1916838001178555613a52565b82800160010185558215613a52579182015b82811115613a51578251825591602001919060010190613a36565b5b509050613a5f9190613b24565b5090565b5080546000825590600052602060002090810190613a819190613b24565b50565b828054828255906000526020600020908101928215613b13579160200282015b82811115613b1257823573ffffffffffffffffffffffffffffffffffffffff168260006101000a81548173ffffffffffffffffffffffffffffffffffffffff021916908373ffffffffffffffffffffffffffffffffffffffff16021790555091602001919060010190613aa4565b5b509050613b209190613b24565b5090565b5b80821115613b3d576000816000905550600101613b25565b5090565b6000613b54613b4f84614a42565b614a1d565b905082815260208101848484011115613b6c57600080fd5b613b77848285614cc9565b509392505050565b6000613b92613b8d84614a73565b614a1d565b905082815260208101848484011115613baa57600080fd5b613bb5848285614cc9565b509392505050565b600081359050613bcc81615591565b92915050565b60008083601f840112613be457600080fd5b8235905067ffffffffffffffff811115613bfd57600080fd5b602083019150836020820283011115613c1557600080fd5b9250929050565b600081359050613c2b816155a8565b92915050565b600081359050613c40816155bf565b92915050565b600081519050613c55816155bf565b92915050565b600082601f830112613c6c57600080fd5b8135613c7c848260208601613b41565b91505092915050565b600082601f830112613c9657600080fd5b8135613ca6848260208601613b7f565b91505092915050565b600081359050613cbe816155d6565b92915050565b600060208284031215613cd657600080fd5b6000613ce484828501613bbd565b91505092915050565b60008060408385031215613d0057600080fd5b6000613d0e85828601613bbd565b9250506020613d1f85828601613bbd565b9150509250929050565b600080600060608486031215613d3e57600080fd5b6000613d4c86828701613bbd565b9350506020613d5d86828701613bbd565b9250506040613d6e86828701613caf565b9150509250925092565b60008060008060808587031215613d8e57600080fd5b6000613d9c87828801613bbd565b9450506020613dad87828801613bbd565b9350506040613dbe87828801613caf565b925050606085013567ffffffffffffffff811115613ddb57600080fd5b613de787828801613c5b565b91505092959194509250565b60008060408385031215613e0657600080fd5b6000613e1485828601613bbd565b9250506020613e2585828601613c1c565b9150509250929050565b60008060408385031215613e4257600080fd5b6000613e5085828601613bbd565b9250506020613e6185828601613caf565b9150509250929050565b60008060208385031215613e7e57600080fd5b600083013567ffffffffffffffff811115613e9857600080fd5b613ea485828601613bd2565b92509250509250929050565b600060208284031215613ec257600080fd5b6000613ed084828501613c1c565b91505092915050565b600060208284031215613eeb57600080fd5b6000613ef984828501613c31565b91505092915050565b600060208284031215613f1457600080fd5b6000613f2284828501613c46565b91505092915050565b600060208284031215613f3d57600080fd5b600082013567ffffffffffffffff811115613f5757600080fd5b613f6384828501613c85565b91505092915050565b600060208284031215613f7e57600080fd5b6000613f8c84828501613caf565b91505092915050565b6000613fa1838361451f565b60208301905092915050565b613fb681614c55565b82525050565b6000613fc782614ac9565b613fd18185614af7565b9350613fdc83614aa4565b8060005b8381101561400d578151613ff48882613f95565b9750613fff83614aea565b925050600181019050613fe0565b5085935050505092915050565b61402381614c67565b82525050565b600061403482614ad4565b61403e8185614b08565b935061404e818560208601614cd8565b61405781614ea4565b840191505092915050565b600061406d82614adf565b6140778185614b24565b9350614087818560208601614cd8565b61409081614ea4565b840191505092915050565b60006140a682614adf565b6140b08185614b35565b93506140c0818560208601614cd8565b80840191505092915050565b600081546140d981614d0b565b6140e38186614b35565b945060018216600081146140fe576001811461410f57614142565b60ff19831686528186019350614142565b61411885614ab4565b60005b8381101561413a5781548189015260018201915060208101905061411b565b838801955050505b50505092915050565b6000614158602b83614b24565b915061416382614eb5565b604082019050919050565b600061417b603283614b24565b915061418682614f04565b604082019050919050565b600061419e602683614b24565b91506141a982614f53565b604082019050919050565b60006141c1601c83614b24565b91506141cc82614fa2565b602082019050919050565b60006141e4601c83614b24565b91506141ef82614fcb565b602082019050919050565b6000614207602483614b24565b915061421282614ff4565b604082019050919050565b600061422a601983614b24565b915061423582615043565b602082019050919050565b600061424d602783614b24565b91506142588261506c565b604082019050919050565b6000614270602c83614b24565b915061427b826150bb565b604082019050919050565b6000614293603883614b24565b915061429e8261510a565b604082019050919050565b60006142b6602a83614b24565b91506142c182615159565b604082019050919050565b60006142d9602983614b24565b91506142e4826151a8565b604082019050919050565b60006142fc601683614b24565b9150614307826151f7565b602082019050919050565b600061431f602483614b24565b915061432a82615220565b604082019050919050565b6000614342602083614b24565b915061434d8261526f565b602082019050919050565b6000614365602c83614b24565b915061437082615298565b604082019050919050565b6000614388602083614b24565b9150614393826152e7565b602082019050919050565b60006143ab601683614b24565b91506143b682615310565b602082019050919050565b60006143ce602983614b24565b91506143d982615339565b604082019050919050565b60006143f1602f83614b24565b91506143fc82615388565b604082019050919050565b6000614414602183614b24565b915061441f826153d7565b604082019050919050565b6000614437603583614b24565b915061444282615426565b604082019050919050565b600061445a600083614b19565b915061446582615475565b600082019050919050565b600061447d601283614b24565b915061448882615478565b602082019050919050565b60006144a0603183614b24565b91506144ab826154a1565b604082019050919050565b60006144c3602c83614b24565b91506144ce826154f0565b604082019050919050565b60006144e6601783614b24565b91506144f18261553f565b602082019050919050565b6000614509601b83614b24565b915061451482615568565b602082019050919050565b61452881614cbf565b82525050565b61453781614cbf565b82525050565b6000614549828661409b565b9150614555828561409b565b915061456182846140cc565b9150819050949350505050565b60006145798261444d565b9150819050919050565b60006020820190506145986000830184613fad565b92915050565b60006080820190506145b36000830187613fad565b6145c06020830186613fad565b6145cd604083018561452e565b81810360608301526145df8184614029565b905095945050505050565b60006040820190506145ff6000830185613fad565b61460c602083018461452e565b9392505050565b6000602082019050818103600083015261462d8184613fbc565b905092915050565b600060208201905061464a600083018461401a565b92915050565b6000602082019050818103600083015261466a8184614062565b905092915050565b6000604082019050818103600083015261468c8185614062565b905061469b6020830184613fad565b9392505050565b600060208201905081810360008301526146bb8161414b565b9050919050565b600060208201905081810360008301526146db8161416e565b9050919050565b600060208201905081810360008301526146fb81614191565b9050919050565b6000602082019050818103600083015261471b816141b4565b9050919050565b6000602082019050818103600083015261473b816141d7565b9050919050565b6000602082019050818103600083015261475b816141fa565b9050919050565b6000602082019050818103600083015261477b8161421d565b9050919050565b6000602082019050818103600083015261479b81614240565b9050919050565b600060208201905081810360008301526147bb81614263565b9050919050565b600060208201905081810360008301526147db81614286565b9050919050565b600060208201905081810360008301526147fb816142a9565b9050919050565b6000602082019050818103600083015261481b816142cc565b9050919050565b6000602082019050818103600083015261483b816142ef565b9050919050565b6000602082019050818103600083015261485b81614312565b9050919050565b6000602082019050818103600083015261487b81614335565b9050919050565b6000602082019050818103600083015261489b81614358565b9050919050565b600060208201905081810360008301526148bb8161437b565b9050919050565b600060208201905081810360008301526148db8161439e565b9050919050565b600060208201905081810360008301526148fb816143c1565b9050919050565b6000602082019050818103600083015261491b816143e4565b9050919050565b6000602082019050818103600083015261493b81614407565b9050919050565b6000602082019050818103600083015261495b8161442a565b9050919050565b6000602082019050818103600083015261497b81614470565b9050919050565b6000602082019050818103600083015261499b81614493565b9050919050565b600060208201905081810360008301526149bb816144b6565b9050919050565b600060208201905081810360008301526149db816144d9565b9050919050565b600060208201905081810360008301526149fb816144fc565b9050919050565b6000602082019050614a17600083018461452e565b92915050565b6000614a27614a38565b9050614a338282614d3d565b919050565b6000604051905090565b600067ffffffffffffffff821115614a5d57614a5c614e75565b5b614a6682614ea4565b9050602081019050919050565b600067ffffffffffffffff821115614a8e57614a8d614e75565b5b614a9782614ea4565b9050602081019050919050565b6000819050602082019050919050565b60008190508160005260206000209050919050565b600081519050919050565b600081519050919050565b600081519050919050565b6000602082019050919050565b600082825260208201905092915050565b600082825260208201905092915050565b600081905092915050565b600082825260208201905092915050565b600081905092915050565b6000614b4b82614cbf565b9150614b5683614cbf565b9250827fffffffffffffffffffffffffffffffffffffffffffffffffffffffffffffffff03821115614b8b57614b8a614de8565b5b828201905092915050565b6000614ba182614cbf565b9150614bac83614cbf565b925082614bbc57614bbb614e17565b5b828204905092915050565b6000614bd282614cbf565b9150614bdd83614cbf565b9250817fffffffffffffffffffffffffffffffffffffffffffffffffffffffffffffffff0483118215151615614c1657614c15614de8565b5b828202905092915050565b6000614c2c82614cbf565b9150614c3783614cbf565b925082821015614c4a57614c49614de8565b5b828203905092915050565b6000614c6082614c9f565b9050919050565b60008115159050919050565b60007fffffffff0000000000000000000000000000000000000000000000000000000082169050919050565b600073ffffffffffffffffffffffffffffffffffffffff82169050919050565b6000819050919050565b82818337600083830152505050565b60005b83811015614cf6578082015181840152602081019050614cdb565b83811115614d05576000848401525b50505050565b60006002820490506001821680614d2357607f821691505b60208210811415614d3757614d36614e46565b5b50919050565b614d4682614ea4565b810181811067ffffffffffffffff82111715614d6557614d64614e75565b5b80604052505050565b6000614d7982614cbf565b91507fffffffffffffffffffffffffffffffffffffffffffffffffffffffffffffffff821415614dac57614dab614de8565b5b600182019050919050565b6000614dc282614cbf565b9150614dcd83614cbf565b925082614ddd57614ddc614e17565b5b828206905092915050565b7f4e487b7100000000000000000000000000000000000000000000000000000000600052601160045260246000fd5b7f4e487b7100000000000000000000000000000000000000000000000000000000600052601260045260246000fd5b7f4e487b7100000000000000000000000000000000000000000000000000000000600052602260045260246000fd5b7f4e487b7100000000000000000000000000000000000000000000000000000000600052604160045260246000fd5b6000601f19601f8301169050919050565b7f455243373231456e756d657261626c653a206f776e657220696e646578206f7560008201527f74206f6620626f756e6473000000000000000000000000000000000000000000602082015250565b7f4552433732313a207472616e7366657220746f206e6f6e20455243373231526560008201527f63656976657220696d706c656d656e7465720000000000000000000000000000602082015250565b7f4f776e61626c653a206e6577206f776e657220697320746865207a65726f206160008201527f6464726573730000000000000000000000000000000000000000000000000000602082015250565b7f4552433732313a20746f6b656e20616c7265616479206d696e74656400000000600082015250565b7f6d6178204e465420706572206164647265737320657863656564656400000000600082015250565b7f4552433732313a207472616e7366657220746f20746865207a65726f2061646460008201527f7265737300000000000000000000000000000000000000000000000000000000602082015250565b7f4552433732313a20617070726f766520746f2063616c6c657200000000000000600082015250565b7f4661696c656420746f207769746864726177206d6f6e65792066726f6d20636f60008201527f6e74726163742e00000000000000000000000000000000000000000000000000602082015250565b7f4552433732313a206f70657261746f7220717565727920666f72206e6f6e657860008201527f697374656e7420746f6b656e0000000000000000000000000000000000000000602082015250565b7f4552433732313a20617070726f76652063616c6c6572206973206e6f74206f7760008201527f6e6572206e6f7220617070726f76656420666f7220616c6c0000000000000000602082015250565b7f4552433732313a2062616c616e636520717565727920666f7220746865207a6560008201527f726f206164647265737300000000000000000000000000000000000000000000602082015250565b7f4552433732313a206f776e657220717565727920666f72206e6f6e657869737460008201527f656e7420746f6b656e0000000000000000000000000000000000000000000000602082015250565b7f6d6178204e4654206c696d697420657863656564656400000000000000000000600082015250565b7f6d6178206d696e7420616d6f756e74207065722073657373696f6e206578636560008201527f6564656400000000000000000000000000000000000000000000000000000000602082015250565b7f4552433732313a206d696e7420746f20746865207a65726f2061646472657373600082015250565b7f4552433732313a20617070726f76656420717565727920666f72206e6f6e657860008201527f697374656e7420746f6b656e0000000000000000000000000000000000000000602082015250565b7f4f776e61626c653a2063616c6c6572206973206e6f7420746865206f776e6572600082015250565b7f74686520636f6e74726163742069732070617573656400000000000000000000600082015250565b7f4552433732313a207472616e73666572206f6620746f6b656e2074686174206960008201527f73206e6f74206f776e0000000000000000000000000000000000000000000000602082015250565b7f4552433732314d657461646174613a2055524920717565727920666f72206e6f60008201527f6e6578697374656e7420746f6b656e0000000000000000000000000000000000602082015250565b7f4552433732313a20617070726f76616c20746f2063757272656e74206f776e6560008201527f7200000000000000000000000000000000000000000000000000000000000000602082015250565b7f547279696e6720746f207769746864726177206d6f7265206d6f6e657920746860008201527f616e207468657920636f6e7472616374206861732e0000000000000000000000602082015250565b50565b7f696e73756666696369656e742066756e64730000000000000000000000000000600082015250565b7f4552433732313a207472616e736665722063616c6c6572206973206e6f74206f60008201527f776e6572206e6f7220617070726f766564000000000000000000000000000000602082015250565b7f455243373231456e756d657261626c653a20676c6f62616c20696e646578206f60008201527f7574206f6620626f756e64730000000000000000000000000000000000000000602082015250565b7f75736572206973206e6f742077686974656c6973746564000000000000000000600082015250565b7f6e65656420746f206d696e74206174206c656173742031204e46540000000000600082015250565b61559a81614c55565b81146155a557600080fd5b50565b6155b181614c67565b81146155bc57600080fd5b50565b6155c881614c73565b81146155d357600080fd5b50565b6155df81614cbf565b81146155ea57600080fd5b5056fea26469706673582212208a991d8364c0ec7cafe7a06f14b52095ea0df5c70bf5814c06f284c7ec56c83164736f6c63430008040033",
  "linkReferences": {},
  "deployedLinkReferences": {}
}